:020000040800F2
:10000000A8270020493E00084D0400084F040008BE
:1000100053040008570400085B04000800000000B7
:100020000000000000000000000000005F04000865
:100030006104000800000000630400086504000873
:10004000633E0008633E0008633E0008633E00080C
:10005000633E0008633E0008633E0008633E0008FC
:10006000633E0008633E0008633E0008633E0008EC
:10007000633E0008633E0008633E0008633E0008DC
:10008000633E0008633E0008633E0008633E0008CC
:10009000633E0008633E0008633E0008633E0008BC
:1000A000633E0008633E0008633E0008633E0008AC
:1000B000633E0008633E0008633E0008633E00089C
:1000C000633E0008633E0008633E0008633E00088C
:1000D000633E0008BD3D0008633E0008633E000823
:1000E000633E0008633E0008633E0008633E00086C
:1000F000633E0008633E0008633E0008633E00085C
:10010000633E0008633E0008633E0008633E00084B
:10011000633E0008633E0008633E0008633E00083B
:10012000633E0008633E0008633E0008633E00082B
:1001300000F002F800F03FF80AA090E8000C8244BA
:100140008344AAF10107DA4501D100F034F8AFF297
:10015000090EBAE80F0013F0010F18BFFB1A43F0A5
:100160000103184790730000B0730000103A24BFD9
:1001700078C878C1FAD8520724BF30C830C144BF0C
:1001800004680C607047000000230024002500264E
:10019000103A28BF78C1FBD8520728BF30C148BFEA
:1001A0000B607047782905F0D380002070471FB599
:1001B0001FBD10B510BD05F083F91146FFF7F7FF1D
:1001C00000F008F805F0A1F903B4FFF7F2FF03BC53
:1001D00003F09AFD1CB500250026A84603F02AFD71
:1001E0004FF4A06003F050FE4FF4E13003F09AFDAD
:1001F00000F02AFA00F00AFF00F04CFA42F208037D
:100200006A4A6B496B4803F0D7FC4FF478406A495F
:1002100008806AA010210B46C822CDE900103221C7
:100220001E2003F08AFC68A010210B46C822CDE9ED
:10023000001046211E2003F080FC66A010210B4612
:10024000C822CDE900105A211E2003F076FC65A0DB
:1002500010210B46C822CDE900106E211E2003F0AC
:100260006CFC63A010210B46C822CDE9001082214E
:100270001E2003F062FC2427002416E0BD420BDBA5
:1002800026B10A204949085500250CE00D204749B0
:100290000855701CC6B206E000265848405D434928
:1002A0000855681CC5B2601C84B242F20800844242
:1002B000E4DB1F2040490880002476E0002000F0A5
:1002C00003FA0546012D60D14DA010210B46C8222E
:1002D000CDE9001096211E2003F02FFC4DA0102127
:1002E0000B46C822CDE90010AA211E2003F025FCF0
:1002F0004AA004F0EDFF012280212D48001F04F0E8
:100300000FFD2C4803F081FC2BE04FF4005003F06C
:1003100011FF20B14FF4005003F020FF22E02548E8
:1003200003F004FF814605F07FFB80463F494046CD
:1003300005F098FA81464FF07E5105F055FC804655
:100340003B49404605F084FB8046404605F04CFBA7
:100350008146102003234A46AA2100901E2003F064
:1003600043FBD2E700BF102003236422AA210090A0
:100370001E2003F039FB2FA010210B46C822CDE927
:10038000001096211E2003F0D8FB601C84B20A20C6
:1003900003F08DFC142C08D12B48006808B901200B
:1003A00000E0002028490860002487E73C00002086
:1003B000043801404400024016000020456C697476
:1003C000652053544D333200444D4120544553541D
:1003D0000000000041544F4D40414C49454E5445AA
:1003E0004B000000323031352F312F313500000005
:1003F0004B4559303A53746172740000E65C000852
:100400005374617274205472616E73696D69742ED5
:100410002E2E2E0020202025000000000D0A444D25
:100420004120444154413A0D0A000000002000469A
:100430000000C8425472616E73696D697420466928
:100440006E6973686564210094812142704700BF22
:10045000FEE700BFFEE700BFFEE700BFFEE7704714
:1004600070477047704700000CB500200190009065
:100470006C48006840F480306A49086000BF6948F1
:10048000006800F4003000900198401C0190009832
:1004900018B90198B0F5A06FF1D16248006800F476
:1004A000003010B10120009001E000200090009881
:1004B000012843D15C48006840F010005A490860A8
:1004C0000846006820F0030008600846006840F015
:1004D0000200086053484068524948600846406836
:1004E00048600846406840F48060486008464068BC
:1004F00020F47C1048600846406840F4E8104860EA
:100500000846006840F08070086000BF45480068F9
:1005100000F000700028F9D04248406820F0030045
:10052000404948600846406840F00200486000BF0B
:100530003C48406800F00C000828F9D10CBD10B50B
:10054000FFF792FF10BD10B53648006840F001007B
:1005500034490860084640683449084031494860D9
:1005600008460068324908402E490860084600687D
:1005700020F4802008600846406820F4FE004860AF
:100580004FF41F008860FFF7DAFF4FF00060294941
:10059000086010BD10B5002100200022214B5B68CF
:1005A00003F00C0121B1042906D0082928D107E065
:1005B000214B224C236027E01F4B204C236023E07B
:1005C000184B5B6803F47010164B5B6803F48032C1
:1005D000022303EB904022B9194B4343174C23608D
:1005E0000DE0104B5B6803F4003323B1144B43431D
:1005F000124C236003E0104B4343104C236003E094
:100600000D4B0E4C236000BF00BF064B5B68C3F36D
:1006100003130C4CE15C094B1B68CB40074C236077
:1006200010BD000000100240002002400000FFF852
:10063000FFFFF6FE08ED00E000127A000000002047
:1006400000093D000400002008B50121482004F005
:10065000D9FD2020ADF8000010208DF80300032004
:100660008DF802006946094804F00CF9202107487A
:1006700004F0B5F92020ADF800006946044804F004
:1006800001F92021024804F0AAF908BD000C01403C
:100690000018014008B50121442004F0B3FD1820E2
:1006A000ADF8000048208DF8030069462C4804F09E
:1006B000E9F80120ADF8000028208DF80300694614
:1006C000284804F0DFF808BD10B5044614B1012035
:1006D000254908702448007858B31021204804F0B8
:1006E00064F950B108211E4804F05FF928B10121D6
:1006F0001C4804F05AF901281BD10A2003F0D7FA4C
:100700000020194908701021154804F04EF908B965
:10071000012010BD0821124804F047F908B9022051
:10072000F7E701210F4804F040F9012815D1032013
:10073000EFE710210A4804F038F901280DD108210B
:10074000074804F032F9012807D10121054804F0D7
:100750002CF910B90120044908700020D9E70000E5
:10076000001801400008014014000020FE490880E4
:100770007047FD49891C0880704708B5FA48801CFD
:1007800000880090BDF8000008BDF74A1080921C58
:100790001180704710B504462046FFF7E7FF05209B
:1007A00003F061FAFFF7E9FF10BDF0480089EE4958
:1007B00008807047EC49891C0880704730B50146B5
:1007C00001F01F04C1F34513CA0AE50205EB431506
:1007D0001544A8B230BD00BF011EA0F10102D0B285
:1007E000FAD1704700B502460B46E048808841F6D2
:1007F0006311884247D1DD488079A8B9DB48008879
:10080000401E801A82B2D9494889FFF7AFFF002005
:10081000FFF7AFFF0020FFF7ACFF1012FFF7A9FFB3
:10082000D0B2FFF7A6FF16E0D0494889FFF79EFF38
:100830001012FFF79EFFD0B2FFF79BFFCB4909884C
:10084000491EC1F30F20FFF794FFC8490978491EDC
:10085000C8B2FFF78EFFC5498889FFF787FF1812D6
:10086000FFF787FFD8B2FFF784FFC0494988491EC8
:10087000C1F30F20FFF77DFFBC498978491EC8B23C
:10088000FFF777FF3AE0B948808845F21051884277
:1008900020D1B6494889FFF769FF1012FFF769FFB9
:1008A000B2494989491C88B2FFF760FFD0B2FFF70F
:1008B00060FFAE498889FFF759FF1812FFF759FF0B
:1008C000AA498989491C88B2FFF750FFD8B2FFF7BF
:1008D00050FF13E0A5494889FFF748FF1012FFF7C2
:1008E00048FFD0B2FFF745FFA0498889FFF73EFFD8
:1008F0001812FFF73EFFD8B2FFF73BFF00BD2DE90E
:10090000F04105460E4699480088A84203DD974805
:100910004088B04202DC0020BDE8F0813146284624
:10092000FFF760FF9148808845F21051884204D15A
:100930004FF43850FFF71AFF02E02E20FFF716FFA2
:10094000FFF71BFF04468948808841F663118842FF
:1009500001D12046E0E7FFF710FF0446FFF70DFF47
:100960008046E7B24FF6FF7000EA0727E012C002A8
:10097000B91240EA411040EAE820CDE700B57B48D3
:10098000808845F21051884204D14FF42450FFF77B
:10099000EDFE02E02920FFF7E9FE00BD00B5734837
:1009A000808845F21051884204D14FF42050FFF75F
:1009B000DDFE02E02820FFF7D9FE00BD70B5044639
:1009C0000023002669488079012805D1674880887E
:1009D00041F66311884208D164488079F0B96348D0
:1009E000808841F66311884218D1082C15D2DFE8BF
:1009F00004F00406080A0C0E101206240DE0072469
:100A00000BE0042409E0052407E0012405E00024AC
:100A100003E0032401E0022400BF00BF082C1CD225
:100A2000DFE804F00406090C0F12151800BF14E0EB
:100A300043F0800311E043F040030EE043F0C003B5
:100A40000BE043F0200308E043F0600305E043F0CF
:100A5000A00302E043F0E00300BF00BF43488088EA
:100A600045F21051884202D14FF4585600E0362624
:100A70003E48808849F24131884205D03B48808811
:100A800047F28971884201D143F008031946304684
:100A9000FFF77BFE3548808841F6631188421DD000
:100AA00003F0200068B13148008830494988884205
:100AB00014DA2E48058840882C490880084645806D
:100AC0000CE02A48008829494988884206DD2748E1
:100AD0000588408825490880084645802348808845
:100AE00045F21051884257D120494889FFF73EFE10
:100AF0000020FFF73EFE1D494989491C88B2FFF7D7
:100B000035FE0020FFF735FE18494989891C88B257
:100B1000FFF72CFE15490988491EC1F30F20FFF786
:100B200028FE12494989C91C88B2FFF71FFE0F49E8
:100B30000978491EC8B2FFF71CFE0C498889FFF7E7
:100B400015FE0020FFF715FE08498989491C88B267
:100B5000FFF70CFE0020FFF70CFE04498989891C71
:100B600088B2FFF703FE03E0FE07006C442000207C
:100B7000FE494988491EC1F30F20FFF7FAFDFB49E2
:100B80008989C91C88B2FFF7F1FDF8498978491EA7
:100B9000C8B2FFF7EEFD2DE0F4494889FFF7E6FD06
:100BA0000020FFF7E6FD0020FFF7E3FDEF4909888D
:100BB000491EC1F30F20FFF7DCFDEC490978491EFF
:100BC000C8B2FFF7D6FDE9498889FFF7CFFD0020BD
:100BD000FFF7CFFD0020FFF7CCFDE4494988491E0F
:100BE000C1F30F20FFF7C5FDE0498978491EC8B25F
:100BF000FFF7BFFD70BD30B504460D4629462046BF
:100C0000FFF7F0FDFFF7D1FDD9480088D9490880EA
:100C100030BD10B503460C46D448808845F21051CB
:100C2000884220D1D1494889FFF7A0FD1812FFF76B
:100C3000A0FDCE494989491C88B2FFF797FDD8B27B
:100C4000FFF797FDC9498889FFF790FD2012FFF74C
:100C500090FDC6498989491C88B2FFF787FDE0B23B
:100C6000FFF787FD42E0C148808841F66311884262
:100C700028D1BE48807920B9BC480088401EC01ADF
:100C800083B2BA494889FFF771FD1812FFF771FD69
:100C9000D8B2FFF76EFD1812FFF76BFDD8B2FFF761
:100CA00068FDB2498889FFF761FD2012FFF761FDF9
:100CB000E0B2FFF75EFD2012FFF75BFDE0B2FFF749
:100CC00058FD13E0A9494889FFF750FD1812FFF7B6
:100CD00050FDD8B2FFF74DFDA4498889FFF746FDC6
:100CE0002012FFF746FDE0B2FFF743FD9F48008961
:100CF000A049891E0880881C028010BD2DE9F0479C
:100D00000446BE20FFF732FD0520FFF732FD2046E6
:100D100004F035FC07464FF06632974B04F042FC76
:100D2000054604F0FFFB1FFA80F94846FFF721FD56
:100D30000120FFF71EFDFF20FFF71BFD0020FFF73E
:100D400018FD0020FFF715FDBDE8F08710B504463B
:100D500086488471002C45D1F020844908804FF4E6
:100D6000A07048800846808845F21051884210D112
:100D70004FF430507D4908814FF4285048814FF49A
:100D80002C5088814FF4F07008804FF448704880F0
:100D90001AE07648808841F6631188420DD12C20F4
:100DA000724908812B2048812A2088814FF4F070F5
:100DB00008804FF44870488006E02C206B49088179
:100DC0002A2048812B2088816848808845F210318C
:100DD00088424CD14FF4A070644908804FF4F07001
:100DE000488044E04FF4A07060490880F0204880BB
:100DF0000846808845F21051884210D14FF4305097
:100E00005A4908814FF4285048814FF42C5088816A
:100E10004FF4487008804FF4F07048801AE053484F
:100E2000808841F6631188420DD12C204F490881FA
:100E30002A2048812B2088814FF4487008804FF485
:100E4000F070488006E02C20484908812A2048811B
:100E50002B2088814548808845F21031884206D190
:100E60004FF4F070414908804FF4A0704880002092
:100E7000FFF7A4FD10BDF0B504460D46A018401EB6
:100E800086B2E818401E87B23848808841F6631160
:100E9000884231D13548807901282DD033480088E7
:100EA000801A001B84B2E818401E83B22F4948897B
:100EB000FFF75CFC2012FFF75CFCE0B2FFF759FC87
:100EC000A118491EC1F30F20FFF753FCA118491EBA
:100ED000C8B2FFF74EFC25498889FFF747FC281266
:100EE000FFF747FCE8B2FFF744FC1812FFF741FC9C
:100EF000D8B2FFF73EFC73E01C48808845F21051E1
:100F000088424DD119494889FFF730FC2012FFF77C
:100F100030FC16494989491C88B2FFF727FCE0B22A
:100F2000FFF727FC11494989891C88B2FFF71EFC8D
:100F30003012FFF71EFC0D494989C91C88B2FFF722
:100F400015FCF0B2FFF715FC08498889FFF70EFC85
:100F50002812FFF70EFC05498989491C88B2FFF762
:100F600005FCE8B2FFF705FC004907E0442000203B
:100F7000160000200008006C666604408989891C00
:100F800088B2FFF7F3FB3812FFF7F3FBFE498989BC
:100F9000C91C88B2FFF7EAFBF8B2FFF7EAFB1FE0D3
:100FA000F9494889FFF7E2FB2012FFF7E2FBE0B2C4
:100FB000FFF7DFFB3012FFF7DCFBF0B2FFF7D9FBE6
:100FC000F1498889FFF7D2FB2812FFF7D2FBE8B27C
:100FD000FFF7CFFB3812FFF7CCFBF8B2FFF7C9FBE6
:100FE000F0BD70B504460026E748058840884543B3
:100FF00000210846FFF7F6FBFFF7D7FB00BF02E032
:10100000E2480480761CAE42FAD370BD00B59FB0B2
:101010000121080204F0E9F801214FF4B47004F052
:10102000F1F80120ADF8780010208DF87B00032046
:101030008DF87A001EA9D64803F024FC4CF23370D8
:10104000ADF8780018208DF87B0003208DF87A0029
:101050001EA9D04803F016FC4FF68070ADF878005A
:1010600018208DF87B0003208DF87A001EA9CA484D
:1010700003F008FC41F20100ADF8780018208DF86B
:101080007B0003208DF87A001EA9C44803F0FAFB08
:1010900001200890002009900F200A9000200B905A
:1010A0000C900D900E900190029003200390002070
:1010B000049005900690079006200F900020109055
:1010C00011901020129000201390159014901690FB
:1010D00017904FF480501890002019904FF48040E2
:1010E0001A9000201B9008A81C9001A81D900FA822
:1010F00003F0AEF80121062003F012FA322002F0CC
:10110000D6FDD320FFF732FBFFF737FB9E498880DF
:10111000FFF733FB9C498880FFF72FFB9A498880B3
:10112000084680884FF6FF7101EA002096498880C2
:10113000FFF723FB94498988084393498880084630
:10114000808849F2413188427DD00420FFF70EFBB0
:10115000FFF713FB8C498880FFF70FFB8A498880D3
:10116000FFF70BFB88498880084680884FF6FF719F
:1011700001EA002084498880FFF7FFFA82498988C4
:101180000843814988800846808848F25251884245
:1011900003D147F289707C4988807B48808847F278
:1011A00089718842D0D0D420FFF7E0FAFFF7E5FA42
:1011B00075498880FFF7E1FA73498880FFF7DDFA07
:1011C00071498880084680884FF6FF7101EA002047
:1011D0006D498880FFF7D1FA6B49898808436A49CD
:1011E00088800846808845F21031884262D05521B7
:1011F0004FF47040FFF7C9FAAA214FF20100FFF740
:10120000C4FA52214FF20200FFF7BFFA08214FF251
:101210000300FFF7BAFA01214FF20400FFF7B5FA15
:101220004FF44540FFF7A2FAFFF7A7FA5649888026
:10123000084680884FF6FF7101EA002052498880F5
:101240004CF2015000E035E0FFF790FAFFF795FA15
:101250004D49898808434C498880052002F027FDC4
:101260004948808845F21051884223D0A120FFF7D9
:101270007DFAFFF782FA44498880FFF77EFA4249F7
:101280008880084680884FF6FF7101EA00203E49B9
:101290008880FFF772FA3C49898808433A49888078
:1012A0000846808845F26171884203D141F6631097
:1012B000354988803448818839A004F009F83248DB
:1012C000808849F24131884272D1CF20FFF74EFA2F
:1012D0000020FFF74EFAC120FFF74BFA3020FFF74E
:1012E00048FAED20FFF742FA6420FFF742FA0320A4
:1012F000FFF73FFA1220FFF73CFA8120FFF739FA97
:10130000E820FFF733FA8520FFF733FA1020FFF7C4
:1013100030FA7A20FFF72DFACB20FFF727FA392091
:10132000FFF727FA2C20FFF724FA0020FFF721FA15
:101330003420FFF71EFA0220FFF71BFAF720FFF711
:1013400015FA2020FFF715FAEA20FFF70FFA002020
:10135000FFF70FFA0020FFF70CFAC020FFF706FA9C
:101360001B20FFF706FAC120FFF700FA0120FFF764
:1013700000FAC520FFF7FAF93020FFF7FAF930201C
:10138000FFF7F7F9C72014E0442000200008006CA4
:10139000000C0140001401400018014000200140F1
:1013A000204C43442049443A25780D0A00000000AF
:1013B000B7E0FFF7DBF9B720FFF7DBF93620FFF7DF
:1013C000D5F94820FFF7D5F93A20FFF7CFF9552096
:1013D000FFF7CFF9B120FFF7C9F90020FFF7C9F9EE
:1013E0001A20FFF7C6F9B620FFF7C0F90A20FFF769
:1013F000C0F9A220FFF7BDF9F220FFF7B7F90020EE
:10140000FFF7B7F92620FFF7B1F90120FFF7B1F98F
:10141000E020FFF7ABF90F20FFF7ABF92A20FFF729
:10142000A8F92820FFF7A5F90820FFF7A2F90E2058
:10143000FFF79FF90820FFF79CF95420FFF799F96F
:10144000A920FFF796F94320FFF793F90A20FFF749
:1014500090F90F20FFF78DF90020FFF78AF900209F
:10146000FFF787F90020FFF784F90020FFF781F9E3
:10147000E120FFF77BF90020FFF77BF91520FFF74C
:1014800078F91720FFF775F90720FFF772F9112097
:10149000FFF76FF90620FFF76CF92B20FFF769F9CA
:1014A0005620FFF766F93C20FFF763F90520FFF7A8
:1014B00060F91020FFF75DF90F20FFF75AF93F2080
:1014C000FFF757F93F20FFF754F90F20FFF751F9C5
:1014D0002B20FFF74BF90020FFF74BF90020FFF717
:1014E00048F90120FFF745F93F20FFF742F92A208C
:1014F000FFF73CF90020FFF73CF90020FFF739F92E
:101500000020FFF736F9EF20FFF733F91120FFF73E
:101510002DF9782002F0CBFB2920FFF727F902F004
:10152000A6B8FE48808847F2897188427ED1112092
:10153000FFF71CF9782002F0BAFB3620FFF716F906
:101540000020FFF716F93A20FFF710F90520FFF702
:1015500010F9B220FFF70AF90C20FFF70AF90C2066
:10156000FFF707F90020FFF704F93320FFF701F92F
:101570003320FFF7FEF8B720FFF7F8F83520FFF724
:10158000F8F8BB20FFF7F2F83220FFF7F2F8C0209E
:10159000FFF7ECF80C20FFF7ECF8C220FFF7E6F8B5
:1015A0000120FFF7E6F8C320FFF7E0F81020FFF76F
:1015B000E0F8C420FFF7DAF82020FFF7DAF8C620B9
:1015C000FFF7D4F80F20FFF7D4F8D020FFF7CEF8BC
:1015D000A420FFF7CEF8A120FFF7CBF8E020FFF71B
:1015E000C5F8D020FFF7C5F80020FFF7C2F80220A9
:1015F000FFF7BFF80720FFF7BCF80A20FFF7B9F89C
:101600002820FFF7B6F83220FFF7B3F84420FFF7A1
:10161000B0F84220FFF7ADF80620FFF7AAF80E2039
:10162000FFF7A7F81220FFF7A4F800E054E0142019
:10163000FFF79FF81720FFF79CF8E120FFF796F8D7
:10164000D020FFF796F80020FFF793F80220FFF76D
:1016500090F80720FFF78DF80A20FFF78AF8282076
:10166000FFF787F83120FFF784F85420FFF781F85F
:101670004720FFF77EF80E20FFF77BF81C20FFF7CE
:1016800078F81720FFF775F81B20FFF772F81E2077
:10169000FFF76FF82A20FFF769F80020FFF769F8D5
:1016A0000020FFF766F80020FFF763F8EF20FFF750
:1016B00060F82B20FFF75AF80020FFF75AF80020B7
:1016C000FFF757F80120FFF754F83F20FFF751F8D4
:1016D0002920FFF74BF822E79048808845F2103127
:1016E000884240F07C87ED20FFF740F80120FFF7AB
:1016F00040F8FE20FFF73DF8EE20FFF737F8DE2038
:10170000FFF737F82120FFF734F8F120FFF72EF824
:101710000120FFF72EF8DF20FFF728F81020FFF751
:1017200028F8C420FFF722F88F20FFF722F8C62000
:10173000FFF71CF80020FFF71CF8E220FFF719F86C
:10174000E220FFF716F8E220FFF713F8BF20FFF7BB
:101750000DF8AA20FFF70DF8B020FFF707F80D20CD
:10176000FFF707F80020FFF704F80D20FFF701F856
:101770000020FEF7FEFF1120FEF7FBFF0020FEF722
:10178000F8FF1920FEF7F5FF0020FEF7F2FF2120F9
:10179000FEF7EFFF0020FEF7ECFF2D20FEF7E9FF3C
:1017A0000020FEF7E6FF3D20FEF7E3FF0020FEF7F6
:1017B000E0FF5D20FEF7DDFF0020FEF7DAFF5D2091
:1017C000FEF7D7FF0020FEF7D4FFB120FEF7CEFFD3
:1017D0008020FEF7CEFF0020FEF7CBFF8B20FEF728
:1017E000C8FF0020FEF7C5FF9620FEF7C2FF0020CD
:1017F000FEF7BFFFB220FEF7B9FF0020FEF7B9FFEA
:101800000020FEF7B6FF0220FEF7B3FF0020FEF730
:10181000B0FF0320FEF7ADFF0020FEF7AAFFB320C4
:10182000FEF7A4FF0020FEF7A4FF0020FEF7A1FFB3
:101830000020FEF79EFF0020FEF79BFF0020FEF732
:1018400098FF0020FEF795FF0020FEF792FF002092
:10185000FEF78FFF0020FEF78CFF0020FEF789FFC8
:101860000020FEF786FF0020FEF783FF0020FEF732
:1018700080FF0020FEF77DFF0020FEF77AFF0020AA
:10188000FEF777FF0020FEF774FF0020FEF771FFE0
:101890000020FEF76EFF0020FEF76BFF0020FEF732
:1018A00068FF0020FEF765FF0020FEF762FF0020C2
:1018B000FEF75FFFB420FEF759FF8B20FEF759FFBC
:1018C0000020FEF756FF9620FEF753FF0020FEF79C
:1018D00050FFA120FEF74DFF0020FEF74AFFB52084
:1018E000FEF744FF0220FEF744FF0020FEF741FF11
:1018F0000320FEF73EFF0020FEF73BFF0420FEF72B
:1019000038FF0020FEF735FFB620FEF72FFF00203E
:10191000FEF72FFF0020FEF72CFF01E044200020FF
:10192000B720FEF723FF0020FEF723FF0020FEF77D
:1019300020FF3F20FEF71DFF0020FEF71AFF5E206C
:10194000FEF717FF0020FEF714FF6420FEF711FFDB
:101950000020FEF70EFF8C20FEF70BFF0020FEF7A5
:1019600008FFAC20FEF705FF0020FEF702FFDC2099
:10197000FEF7FFFE0020FEF7FCFE7020FEF7F9FEEA
:101980000020FEF7F6FE9020FEF7F3FE0020FEF7A3
:10199000F0FEEB20FEF7EDFE0020FEF7EAFEDC2075
:1019A000FEF7E7FE0020FEF7E4FEB820FEF7DEFEBD
:1019B0000020FEF7DEFE0020FEF7DBFE0020FEF733
:1019C000D8FE0020FEF7D5FE0020FEF7D2FE002054
:1019D000FEF7CFFE0020FEF7CCFE0020FEF7C9FE8A
:1019E000BA20FEF7C3FE2420FEF7C3FE0020FEF758
:1019F000C0FE0020FEF7BDFE0020FEF7BAFEC120AB
:101A0000FEF7B4FE2020FEF7B4FE0020FEF7B1FE84
:101A10005420FEF7AEFE0020FEF7ABFEFF20FEF7DF
:101A2000A8FE0020FEF7A5FEC220FEF79FFE0A20BA
:101A3000FEF79FFE0020FEF79CFE0420FEF799FEB5
:101A40000020FEF796FEC320FEF790FE3C20FEF736
:101A500090FE0020FEF78DFE3A20FEF78AFE002061
:101A6000FEF787FE3920FEF784FE0020FEF781FE98
:101A70003720FEF77EFE0020FEF77BFE3C20FEF7BF
:101A800078FE0020FEF775FE3620FEF772FE00207D
:101A9000FEF76FFE3220FEF76CFE0020FEF769FEB7
:101AA0002F20FEF766FE0020FEF763FE2C20FEF7D7
:101AB00060FE0020FEF75DFE2920FEF75AFE0020A2
:101AC000FEF757FE2620FEF754FE0020FEF751FEDB
:101AD0002420FEF74EFE0020FEF74BFE2420FEF7EA
:101AE00048FE0020FEF745FE2320FEF742FE0020C0
:101AF000FEF73FFE3C20FEF73CFE0020FEF739FEDD
:101B00003620FEF736FE0020FEF733FE3220FEF7C9
:101B100030FE0020FEF72DFE2F20FEF72AFE0020CB
:101B2000FEF727FE2C20FEF724FE0020FEF721FE04
:101B30002920FEF71EFE0020FEF71BFE2620FEF7E2
:101B400018FE0020FEF715FE2420FEF712FE0020EE
:101B5000FEF70FFE2420FEF70CFE0020FEF709FE24
:101B60002320FEF706FE0020FEF703FEC420FEF74A
:101B7000FDFD6220FEF7FDFD0020FEF7FAFD0520C9
:101B8000FEF7F7FD0020FEF7F4FD8420FEF7F1FDDF
:101B90000020FEF7EEFDF020FEF7EBFD0020FEF743
:101BA000E8FD1820FEF7E5FD0020FEF7E2FDA42089
:101BB000FEF7DFFD0020FEF7DCFD1820FEF7D9FD63
:101BC0000020FEF7D6FD5020FEF7D3FD0020FEF7E3
:101BD000D0FD0C20FEF7CDFD0020FEF7CAFD17203A
:101BE000FEF7C7FD0020FEF7C4FD9520FEF7C1FDFE
:101BF0000020FEF7BEFDF320FEF7BBFD0020FEF740
:101C0000B8FDE620FEF7B5FD0020FEF7B2FDC520C9
:101C1000FEF7ACFD3220FEF7ACFD0020FEF7A9FD7B
:101C20004420FEF7A6FD0020FEF7A3FD6520FEF789
:101C3000A0FD0020FEF79DFD7620FEF79AFD002016
:101C4000FEF797FD8820FEF794FD0020FEF791FD3A
:101C5000C620FEF78BFD2020FEF78BFD0020FEF74F
:101C600088FD1720FEF785FD0020FEF782FD01208C
:101C7000FEF77FFD0020FEF77CFDC720FEF776FD16
:101C80000020FEF776FD0020FEF773FD0020FEF732
:101C900070FD0020FEF76DFDC820FEF767FD0020F7
:101CA000FEF767FD0020FEF764FD0020FEF761FDF2
:101CB0000020FEF75EFDC920FEF758FD0020FEF76C
:101CC00058FD0020FEF755FD0020FEF752FD0020D4
:101CD000FEF74FFD0020FEF74CFD0020FEF749FD0A
:101CE0000020FEF746FD0020FEF743FD0020FEF732
:101CF00040FD0020FEF73DFD0020FEF73AFD0020EC
:101D0000FEF737FD0020FEF734FD0020FEF731FD21
:101D10000020FEF72EFD0020FEF72BFDE020FEF751
:101D200025FD1620FEF725FD0020FEF722FD1C20D4
:101D3000FEF71FFD0020FEF71CFD2120FEF719FD18
:101D40000020FEF716FD3620FEF713FD0020FEF7FB
:101D500010FD4620FEF70DFD0020FEF70AFD522083
:101D6000FEF707FD0020FEF704FD6420FEF701FDED
:101D70000020FEF7FEFC7A20FEF7FBFC0020FEF7B9
:101D8000F8FC8B20FEF7F5FC0020FEF7F2FC992012
:101D9000FEF7EFFC0020FEF7ECFCA820FEF7E9FCC4
:101DA0000020FEF7E6FCB920FEF7E3FC0020FEF77A
:101DB000E0FCC420FEF7DDFC0020FEF7DAFCCA20C0
:101DC000FEF7D7FC0020FEF7D4FCD220FEF7D1FCB2
:101DD0000020FEF7CEFCD920FEF7CBFC0020FEF75A
:101DE000C8FCE020FEF7C5FC0020FEF7C2FCF32093
:101DF000FEF7BFFC0020FEF7BCFCE120FEF7B6FCBE
:101E00001620FEF7B6FC0020FEF7B3FC1C20FEF700
:101E1000B0FC0020FEF7ADFC2220FEF7AAFC00205B
:101E2000FEF7A7FC3620FEF7A4FC0020FEF7A1FC7D
:101E30004520FEF79EFC0020FEF79BFC5220FEF79B
:101E400098FC0020FEF795FC6420FEF792FC002031
:101E5000FEF78FFC7A20FEF78CFC0020FEF789FC51
:101E60008B20FEF786FC0020FEF783FC9920FEF70E
:101E700080FC0020FEF77DFCA820FEF77AFC002005
:101E8000FEF777FCB920FEF774FC0020FEF771FC2A
:101E9000C420FEF76EFC0020FEF76BFCCA20FEF7A4
:101EA00068FC0020FEF765FCD220FEF762FC0020F3
:101EB000FEF75FFCD820FEF75CFC0020FEF759FC23
:101EC000E020FEF756FC0020FEF753FCF320FEF75F
:101ED00050FC0020FEF74DFCE220FEF747FC0520F9
:101EE000FEF747FC0020FEF744FC0B20FEF741FC08
:101EF0000020FEF73EFC1B20FEF73BFC0020FEF717
:101F000038FC3420FEF735FC0020FEF732FC44207C
:101F1000FEF72FFC0020FEF72CFC4F20FEF729FCDB
:101F20000020FEF726FC6120FEF723FC0020FEF7D0
:101F300020FC7920FEF71DFC0020FEF71AFC88200B
:101F4000FEF717FC0020FEF714FC9720FEF711FCAB
:101F50000020FEF70EFCA620FEF70BFC0020FEF78B
:101F600008FCB720FEF705FC0020FEF702FCC220AB
:101F7000FEF7FFFB0020FEF7FCFBC720FEF7F9FB96
:101F80000020FEF7F6FBD120FEF7F3FB0020FEF762
:101F9000F0FBD620FEF7EDFB0020FEF7EAFBDD208C
:101FA000FEF7E7FB0020FEF7E4FBF320FEF7E1FB82
:101FB0000020FEF7DEFBE320FEF7D8FB0520FEF74E
:101FC000D8FB0020FEF7D5FB0A20FEF7D2FB00204D
:101FD000FEF7CFFB1C20FEF7CCFB0020FEF7C9FB71
:101FE0003320FEF7C6FB0020FEF7C3FB4420FEF7BC
:101FF000C0FB0020FEF7BDFB5020FEF7BAFB00201F
:10200000FEF7B7FB6220FEF7B4FB0020FEF7B1FB42
:102010007820FEF7AEFB0020FEF7ABFB8820FEF732
:10202000A8FB0020FEF7A5FB9720FEF7A2FB0020EF
:10203000FEF79FFBA620FEF79CFB0020FEF799FB16
:10204000B720FEF796FB0020FEF793FBC220FEF7B9
:1020500090FB0020FEF78DFBC720FEF78AFB0020D7
:10206000FEF787FBD120FEF784FB0020FEF781FB03
:10207000D520FEF77EFB0020FEF77BFBDD20FEF780
:1020800078FB0020FEF775FBF320FEF772FB0020C3
:10209000FEF76FFBE420FEF769FB0120FEF769FB0A
:1020A0000020FEF766FB0120FEF763FB0020FEF731
:1020B00060FB0220FEF75DFB0020FEF75AFB2A20A2
:1020C000FEF757FB0020FEF754FB3C20FEF751FBC8
:1020D0000020FEF74EFB4B20FEF74BFB0020FEF7E7
:1020E00048FB5D20FEF745FB0020FEF742FB742015
:1020F000FEF73FFB0020FEF73CFB8420FEF739FB98
:102100000020FEF736FB9320FEF733FB0020FEF79E
:1021100030FBA220FEF72DFB0020FEF72AFBB320A8
:10212000FEF727FB0020FEF724FBBE20FEF721FB75
:102130000020FEF71EFBC420FEF71BFB0020FEF76D
:1021400018FBCD20FEF715FB0020FEF712FBD32075
:10215000FEF70FFB0020FEF70CFBDD20FEF709FB6E
:102160000020FEF706FBF320FEF703FB0020FEF73E
:1021700000FBE520FEF7FAFA0020FEF7FAFA00204D
:10218000FEF7F7FA0020FEF7F4FA0020FEF7F1FA66
:102190000220FEF7EEFA0020FEF7EBFA2920FEF708
:1021A000E8FA0020FEF7E5FA3C20FEF7E2FA00200C
:1021B000FEF7DFFA4B20FEF7DCFA0020FEF7D9FA33
:1021C0005D20FEF7D6FA0020FEF7D3FA7420FEF762
:1021D000D0FA0020FEF7CDFA8420FEF7CAFA0020DC
:1021E000FEF7C7FA9320FEF7C4FA0020FEF7C1FA03
:1021F000A220FEF7BEFA0020FEF7BBFAB320FEF7DE
:10220000B8FA0020FEF7B5FABE20FEF7B2FA0020B9
:10221000FEF7AFFAC420FEF7ACFA0020FEF7A9FAE9
:10222000CD20FEF7A6FA0020FEF7A3FAD320FEF792
:10223000A0FA0020FEF79DFADC20FEF79AFA0020B3
:10224000FEF797FAF320FEF794FA0020FEF791FAD2
:10225000E620FEF78BFA1120FEF78BFA0020FEF73E
:1022600088FA3420FEF785FA0020FEF782FA56201D
:10227000FEF77FFA0020FEF77CFA7620FEF779FA67
:102280000020FEF776FA7720FEF773FA0020FEF7BB
:1022900070FA6620FEF76DFA0020FEF76AFA8820D1
:1022A000FEF767FA0020FEF764FA9920FEF761FA5C
:1022B0000020FEF75EFABB20FEF75BFA0020FEF777
:1022C00058FA9920FEF755FA0020FEF752FA6620D8
:1022D000FEF74FFA0020FEF74CFA5520FEF749FAB8
:1022E0000020FEF746FA5520FEF743FA0020FEF7DD
:1022F00040FA4520FEF73DFA0020FEF73AFA432067
:10230000FEF737FA0020FEF734FA4420FEF731FAE0
:102310000020FEF72EFAE720FEF728FA3220FEF71B
:1023200028FA0020FEF725FA5520FEF722FA0020B1
:10233000FEF71FFA7620FEF71CFA0020FEF719FAC6
:102340006620FEF716FA0020FEF713FA6720FEF764
:1023500010FA0020FEF70DFA6720FEF70AFA0020B7
:10236000FEF707FA8720FEF704FA0020FEF701FACD
:102370009920FEF7FEF90020FEF7FBF9BB20FEF7DF
:10238000F8F90020FEF7F5F99920FEF7F2F90020A0
:10239000FEF7EFF97720FEF7ECF90020FEF7E9F9F8
:1023A0004420FEF7E6F90020FEF7E3F95620FEF799
:1023B000E0F90020FEF7DDF92320FEF7DAF900202E
:1023C000FEF7D7F93320FEF7D4F90020FEF7D1F954
:1023D0004520FEF7CEF90020FEF7CBF9E820FEF706
:1023E000C5F90020FEF7C5F90020FEF7C2F99920D3
:1023F000FEF7BFF90020FEF7BCF98720FEF7B9F918
:102400000020FEF7B6F98820FEF7B3F90020FEF7AA
:10241000B0F97720FEF7ADF90020FEF7AAF96620A3
:10242000FEF7A7F90020FEF7A4F98820FEF7A1F92E
:102430000020FEF79EF9AA20FEF79BF90020FEF788
:1024400098F9BB20FEF795F90020FEF792F9992044
:10245000FEF78FF90020FEF78CF96620FEF789F968
:102460000020FEF786F95520FEF783F90020FEF7DD
:1024700080F95520FEF77DF90020FEF77AF9442017
:10248000FEF777F90020FEF774F94420FEF771F9A2
:102490000020FEF76EF95520FEF76BF90020FEF7DD
:1024A00068F9E920FEF762F9AA20FEF762F9002038
:1024B000FEF75FF90020FEF75CF90020FEF759F9FE
:1024C0000020FEF753F9AA20FEF753F9CF20FEF7BC
:1024D0004DF90020FEF74DF90020FEF74AF90020E3
:1024E000FEF747F90020FEF744F90020FEF741F916
:1024F0000020FEF73EF90020FEF73BF90020FEF732
:1025000038F90020FEF735F90020FEF732F90020F7
:10251000FEF72FF90020FEF72CF90020FEF729F92D
:102520000020FEF726F90020FEF723F90020FEF731
:1025300020F90020FEF71DF9F020FEF717F9002022
:10254000FEF717F95020FEF714F90020FEF711F9F5
:102550000020FEF70EF90020FEF70BF9F320FEF73E
:1025600005F90020FEF705F9F920FEF7FFF806202F
:10257000FEF7FFF81020FEF7FCF82920FEF7F9F827
:102580000020FEF7F6F83A20FEF7F0F85520FEF7A7
:10259000F0F81120FEF7EAF8642001F088FB29200A
:1025A000FEF7E4F83520FEF7E1F80020FEF7E1F849
:1025B0005120FEF7DBF8FF20FEF7DBF85320FEF793
:1025C000D5F82C20FEF7D5F85520FEF7CFF882205D
:1025D000FEF7CFF82C20FEF7C9F801F048B8FE4806
:1025E000808845F2105188427ED155214FF47040C9
:1025F000FEF7CBF8AA214FF20100FEF7C6F85221F0
:102600004FF20200FEF7C1F808214FF20300FEF777
:10261000BCF801214FF20400FEF7B7F80D214FF48A
:102620003040FEF7B2F80D214BF20100FEF7ADF895
:102630000D214BF20200FEF7A8F834214FF436408A
:10264000FEF7A3F834214BF20160FEF79EF8342127
:102650004BF20260FEF799F80D214FF43140FEF77E
:1026600094F80D214BF20110FEF78FF80D214BF27B
:102670000210FEF78AF834214FF43740FEF785F850
:1026800034214BF20170FEF780F834214BF20270D6
:10269000FEF77BF800214FF43240FEF776F8002178
:1026A0004BF20120FEF771F800214BF20220FEF7F9
:1026B0006CF824214FF43840FEF767F824214BF6DC
:1026C0000100FEF762F824214BF60200FEF75DF8E8
:1026D00001214FF43F40FEF758F80F214FF43340EB
:1026E000FEF753F80F2100E0FEE34BF20130FEF756
:1026F0004CF80F214BF20230FEF747F834214FF42B
:102700003940FEF742F834214BF60110FEF73DF850
:1027100034214BF60210FEF738F808214FF435400B
:10272000FEF733F808214BF20150FEF72EF808218E
:102730004BF20250FEF729F803214FF44240FEF716
:1027400024F824214FF43A40FEF71FF824214BF6D9
:102750000120FEF71AF824214BF60220FEF715F8A7
:1027600000214FF43C40FEF710F878214BF6014071
:10277000FEF70BF800214BF60240FEF706F80021A9
:102780004FF43D40FEF701F878214BF60150FDF77C
:10279000FCFF00214BF60250FDF7F7FF00214FF43C
:1027A0003E40FDF7F2FF64214BF60160FDF7EDFFBF
:1027B00000214FF45140FDF7E8FF33214DF20110A5
:1027C000FDF7E3FF00214DF20210FDF7DEFF34219B
:1027D0004DF20310FDF7D9FF00214DF20410FDF773
:1027E000D4FF3A214DF20510FDF7CFFF00214DF245
:1027F0000610FDF7CAFF4A214DF20710FDF7C5FF8D
:1028000000214DF20810FDF7C0FF5C214DF20910C8
:10281000FDF7BBFF00214DF20A10FDF7B6FF812145
:102820004DF20B10FDF7B1FF00214DF20C10FDF73A
:10283000ACFFA6214DF20D10FDF7A7FF00214DF2D0
:102840000E10FDF7A2FFE5214DF20F10FDF79DFFE1
:1028500001214DF21010FDF798FF13214DF21110D8
:10286000FDF793FF01214DF21210FDF78EFF542169
:102870004DF21310FDF789FF01214DF21410FDF701
:1028800084FF82214DF21510FDF77FFF01214DF2EB
:102890001610FDF77AFFCA214DF21710FDF775FFEC
:1028A00002214DF21810FDF770FF00214DF21910B2
:1028B000FDF76BFF02214DF21A10FDF766FF0121B3
:1028C0004DF21B10FDF761FF02214DF21C10FDF7C8
:1028D0005CFF34214DF21D10FDF757FF02214DF230
:1028E0001E10FDF752FF67214DF21F10FDF74DFF3F
:1028F00002214DF22010FDF748FF84214DF22110F6
:10290000FDF743FF02214DF22210FDF73EFFA42107
:102910004DF22310FDF739FF02214DF22410FDF78F
:1029200034FFB7214DF22510FDF72FFF02214DF2A4
:102930002610FDF72AFFCF214DF22710FDF725FFC6
:1029400002214DF22810FDF720FFDE214DF2291063
:10295000FDF71BFF02214DF22A10FDF716FFF221B1
:102960004DF22B10FDF711FF02214DF22C10FDF757
:102970000CFFFE214DF22D10FDF707FF03214DF254
:102980002E10FDF702FF10214DF22F10FDF7FDFE76
:1029900003214DF23010FDF7F8FE33214DF23110D6
:1029A000FDF7F3FE03214DF23210FDF7EEFE6D212F
:1029B0004DF23310FDF7E9FE00214FF45240FDF7D0
:1029C000E4FE33214DF20120FDF7DFFE00214DF240
:1029D0000220FDF7DAFE01E04420002034214DF210
:1029E0000320FDF7D2FE00214DF20420FDF7CDFEBD
:1029F0003A214DF20520FDF7C8FE00214DF20620D8
:102A0000FDF7C3FE4A214DF20720FDF7BEFE00216F
:102A10004DF20820FDF7B9FE5C214DF20920FDF7CB
:102A2000B4FE00214DF20A20FDF7AFFE81214DF2E8
:102A30000B20FDF7AAFE00214DF20C20FDF7A5FEAC
:102A4000A6214DF20D20FDF7A0FE00214DF20E2033
:102A5000FDF79BFEE5214DF20F20FDF796FE0121CB
:102A60004DF21020FDF791FE13214DF21120FDF7DC
:102A70008CFE01214DF21220FDF787FE54214DF20C
:102A80001320FDF782FE01214DF21420FDF77DFE9B
:102A900082214DF21520FDF778FE01214DF216201E
:102AA000FDF773FECA214DF21720FDF76EFE0221DD
:102AB0004DF21820FDF769FE00214DF21920FDF7B7
:102AC00064FE02214DF21A20FDF75FFE01214DF256
:102AD0001B20FDF75AFE02214DF21C20FDF755FE8A
:102AE00034214DF21D20FDF750FE02214DF21E2033
:102AF000FDF74BFE67214DF21F20FDF746FE022138
:102B00004DF22020FDF741FE84214DF22120FDF7FA
:102B10003CFE02214DF22220FDF737FEA4214DF2AA
:102B20002320FDF732FE02214DF22420FDF72DFE79
:102B3000B7214DF22520FDF728FE02214DF2262077
:102B4000FDF723FECF214DF22720FDF71EFE0221C7
:102B50004DF22820FDF719FEDE214DF22920FDF768
:102B600014FE02214DF22A20FDF70FFEF2214DF254
:102B70002B20FDF70AFE02214DF22C20FDF705FE69
:102B8000FE214DF22D20FDF700FE03214DF22E20F7
:102B9000FDF7FBFD10214DF22F20FDF7F6FD03217F
:102BA0004DF23020FDF7F1FD33214DF23120FDF7DC
:102BB000ECFD03214DF23220FDF7E7FD6D214DF2D2
:102BC0003320FDF7E2FD00214FF45340FDF7DDFD1A
:102BD00033214DF20130FDF7D8FD00214DF20230D6
:102BE000FDF7D3FD34214DF20330FDF7CEFD00217A
:102BF0004DF20430FDF7C9FD3A214DF20530FDF7E5
:102C0000C4FD00214DF20630FDF7BFFD4A214DF213
:102C10000730FDF7BAFD00214DF20830FDF7B5FD94
:102C20005C214DF20930FDF7B0FD00214DF20A3074
:102C3000FDF7ABFD81214DF20B30FDF7A6FD002124
:102C40004DF20C30FDF7A1FDA6214DF20D30FDF740
:102C50009CFD00214DF20E30FDF797FDE5214DF270
:102C60000F30FDF792FD01214DF21030FDF78DFD83
:102C700013214DF21130FDF788FD01214DF2123084
:102C8000FDF783FD54214DF21330FDF77EFD012148
:102C90004DF21430FDF779FD82214DF21530FDF72C
:102CA00074FD01214DF21630FDF76FFDCA214DF282
:102CB0001730FDF76AFD02214DF21830FDF765FD72
:102CC00000214DF21930FDF760FD02214DF21A305E
:102CD000FDF75BFD01214DF21B30FDF756FD022192
:102CE0004DF21C30FDF751FD34214DF21D30FDF742
:102CF0004CFD02214DF21E30FDF747FD67214DF2DC
:102D00001F30FDF742FD02214DF22030FDF73DFD61
:102D100084214DF22130FDF738FD02214DF22230A1
:102D2000FDF733FDA4214DF22330FDF72EFD0221E6
:102D30004DF22430FDF729FDB7214DF22530FDF786
:102D400024FD02214DF22630FDF71FFDCF214DF26B
:102D50002730FDF71AFD02214DF22830FDF715FD51
:102D6000DE214DF22930FDF710FD02214DF22A300F
:102D7000FDF70BFDF2214DF22B30FDF706FD022190
:102D80004DF22C30FDF701FDFE214DF22D30FDF707
:102D9000FCFC03214DF22E30FDF7F7FC10214DF223
:102DA0002F30FDF7F2FC03214DF23030FDF7EDFC42
:102DB00033214DF23130FDF7E8FC03214DF2323082
:102DC000FDF7E3FC6D214DF23330FDF7DEFC002111
:102DD0004FF45440FDF7D9FC33214DF20140FDF78B
:102DE000D4FC00214DF20240FDF7CFFC34214DF21E
:102DF0000340FDF7CAFC00214DF20440FDF7C5FC7D
:102E00003A214DF20540FDF7C0FC00214DF206408D
:102E1000FDF7BBFC4A214DF20740FDF7B6FC00214F
:102E20004DF20840FDF7B1FC5C214DF20940FDF781
:102E3000ACFC00214DF20A40FDF7A7FC81214DF2C8
:102E40000B40FDF7A2FC00214DF20C40FDF79DFC6C
:102E5000A6214DF20D40FDF798FC00214DF20E40E9
:102E6000FDF793FCE5214DF20F40FDF78EFC0121AB
:102E70004DF21040FDF789FC13214DF21140FDF792
:102E800084FC01214DF21240FDF77FFC54214DF2EC
:102E90001340FDF77AFC01214DF21440FDF775FC5B
:102EA00082214DF21540FDF770FC01214DF21640D4
:102EB000FDF76BFCCA214DF21740FDF766FC0221BD
:102EC0004DF21840FDF761FC00214DF21940FDF76D
:102ED0005CFC02214DF21A40FDF757FC01214DF236
:102EE0001B40FDF752FC00E003E302214DF21C40C1
:102EF000FDF74BFC34214DF21D40FDF746FC02214D
:102F00004DF21E40FDF741FC67214DF21F40FDF7D9
:102F10003CFC02214DF22040FDF737FC84214DF2AC
:102F20002140FDF732FC02214DF22240FDF72DFC3D
:102F3000A4214DF22340FDF728FC02214DF224404C
:102F4000FDF723FCB7214DF22540FDF71EFC0221C1
:102F50004DF22640FDF719FCCF214DF22740FDF739
:102F600014FC02214DF22840FDF70FFCDE214DF24A
:102F70002940FDF70AFC02214DF22A40FDF705FC2D
:102F8000F2214DF22B40FDF700FC02214DF22C40C6
:102F9000FDF7FBFBFE214DF22D40FDF7F6FB032173
:102FA0004DF22E40FDF7F1FB10214DF22F40FDF7C1
:102FB000ECFB03214DF23040FDF7E7FB33214DF2EE
:102FC0003140FDF7E2FB03214DF23240FDF7DDFB1E
:102FD0006D214DF23340FDF7D8FB00214FF45540F1
:102FE000FDF7D3FB33214DF20150FDF7CEFB00215D
:102FF0004DF20250FDF7C9FB34214DF20350FDF7AD
:10300000C4FB00214DF20450FDF7BFFB3A214DF205
:103010000550FDF7BAFB00214DF20650FDF7B5FB58
:103020004A214DF20750FDF7B0FB00214DF2085048
:10303000FDF7ABFB5C214DF20950FDF7A6FB00212B
:103040004DF20A50FDF7A1FB81214DF20B50FDF727
:103050009CFB00214DF20C50FDF797FBA6214DF291
:103060000D50FDF792FB00214DF20E50FDF78DFB48
:10307000E5214DF20F50FDF788FB01214DF2105074
:10308000FDF783FB13214DF21150FDF77EFB01216B
:103090004DF21250FDF779FB54214DF21350FDF71C
:1030A00074FB01214DF21450FDF76FFB82214DF2AC
:1030B0001550FDF76AFB01214DF21650FDF765FB37
:1030C000CA214DF21750FDF760FB02214DF2185056
:1030D000FDF75BFB00214DF21950FDF756FB022175
:1030E0004DF21A50FDF751FB01214DF21B50FDF737
:1030F0004CFB02214DF21C50FDF747FB34214DF2F1
:103100001D50FDF742FB02214DF21E50FDF73DFB25
:1031100067214DF21F50FDF738FB02214DF2205080
:10312000FDF733FB84214DF22150FDF72EFB0221E8
:103130004DF22250FDF729FBA4214DF22350FDF75B
:1031400024FB02214DF22450FDF71FFBB7214DF265
:103150002550FDF71AFB02214DF22650FDF715FB15
:10316000CF214DF22750FDF710FB02214DF22850E0
:10317000FDF70BFBDE214DF22950FDF706FB022186
:103180004DF22A50FDF701FBF2214DF22B50FDF7D5
:10319000FCFA02214DF22C50FDF7F7FAFE214DF218
:1031A0002D50FDF7F2FA03214DF22E50FDF7EDFA06
:1031B00010214DF22F50FDF7E8FA03214DF2305067
:1031C000FDF7E3FA33214DF23150FDF7DEFA03212A
:1031D0004DF23250FDF7D9FA6D214DF23350FDF723
:1031E000D4FA00214FF45640FDF7CFFA33214DF2C7
:1031F0000160FDF7CAFA00214DF20260FDF7C5FA41
:1032000034214DF20360FDF7C0FA00214DF2046055
:10321000FDF7BBFA3A214DF20560FDF7B6FA002141
:103220004DF20660FDF7B1FA4A214DF20760FDF755
:10323000ACFA00214DF20860FDF7A7FA5C214DF2CF
:103240000960FDF7A2FA00214DF20A60FDF79DFA30
:1032500081214DF20B60FDF798FA00214DF20C60D0
:10326000FDF793FAA6214DF20D60FDF78EFA0021CD
:103270004DF20E60FDF789FAE5214DF20F60FDF782
:1032800084FA01214DF21060FDF77FFA13214DF20F
:103290001160FDF77AFA01214DF21260FDF775FA1F
:1032A00054214DF21360FDF770FA01214DF21460C4
:1032B000FDF76BFA82214DF21560FDF766FA0121E8
:1032C0004DF21660FDF761FACA214DF21760FDF765
:1032D0005CFA02214DF21860FDF757FA00214DF219
:1032E0001960FDF752FA02214DF21A60FDF74DFA0E
:1032F00001214DF21B60FDF748FA02214DF21C60DE
:10330000FDF743FA34214DF21D60FDF73EFA02212C
:103310004DF21E60FDF739FA67214DF21F60FDF78F
:1033200034FA02214DF22060FDF72FFA84214DF28C
:103330002160FDF72AFA02214DF22260FDF725FAFD
:10334000A4214DF22360FDF720FA02214DF2246002
:10335000FDF71BFAB7214DF22560FDF716FA0221A1
:103360004DF22660FDF711FACF214DF22760FDF7EF
:103370000CFA02214DF22860FDF707FADE214DF22A
:103380002960FDF702FA02214DF22A60FDF7FDF9EE
:10339000F2214DF22B60FDF7F8F902214DF22C607D
:1033A000FDF7F3F9FE214DF22D60FDF7EEF9032153
:1033B0004DF22E60FDF7E9F910214DF22F60FDF777
:1033C000E4F903214DF23060FDF7DFF933214DF2CE
:1033D0003160FDF7DAF903214DF23260FDF7D5F9DE
:1033E0006D214DF23360FDF7D0F955214FF4704057
:1033F000FDF7CBF9AA214FF20100FDF7C6F95221E2
:103400004FF20200FDF7C1F908214FF20300FDF76A
:10341000BCF900214FF20400FDF7B7F9CC214FF4BD
:103420003140FDF7B2F900214BF20110FDF7ADF983
:1034300005214FF43640FDF7A8F970214FF43740CD
:10344000FDF7A3F970214BF20170FDF79EF9012100
:103450004FF43840FDF799F903214BF60100FDF7D1
:1034600094F903214BF60200FDF78FF903214BF687
:103470000300FDF78AF902214FF43C40FDF785F97E
:1034800000214BF60140FDF780F900214BF6024088
:10349000FDF77BF9D0214FF44940FDF776F9022181
:1034A0004CF60110FDF771F950214CF60210FDF7B2
:1034B0006CF950214CF60310FDF767F950214CF6DA
:1034C0000410FDF762F900214FF45450FDF75DF947
:1034D00055214FF46850FDF758F94FF48850FDF727
:1034E00045F9782000F0BFFB4FF42450FDF73EF97A
:1034F000BDE0FE48808841F663118842F8D1E220A1
:10350000FDF734F91D20FDF734F90220FDF731F9FC
:103510000420FDF72EF9642000F0A5FBE020FDF764
:1035200025F90120FDF725F90A2000F0C0FBE02075
:10353000FDF71CF90320FDF71CF90C2000F0B7FB88
:103540000120FDF713F90A2000F0B1FBE620FDF79A
:103550000DF92F20FDF70DF9FF20FDF70AF9FF20E7
:10356000FDF707F9B020FDF701F92020FDF701F97B
:103570000020FDF7FEF80320FDF7FBF840F21F30B6
:10358000FDF7F7F80120FDF7F4F840F2DF10FDF742
:10359000F0F80020FDF7EDF8B420FDF7E7F804207F
:1035A000FDF7E7F840F21F40FDF7E3F80020FDF7D4
:1035B000E0F82E20FDF7DDF80020FDF7DAF8002016
:1035C000FDF7D7F80020FDF7D4F80020FDF7D1F87B
:1035D000B620FDF7CBF80220FDF7CBF84FF40370CF
:1035E000FDF7C7F80020FDF7C4F81720FDF7C1F874
:1035F0001520FDF7BEF80020FDF7BBF80020FDF711
:10360000B8F8F020FDF7B2F80320FDF7B2F8292052
:10361000FDF7ACF8D020FDF7A9F80020FDF7A9F8D8
:10362000BE20FDF7A3F80520FDF7A3F8FE20FDF767
:10363000A0F80120FDF79DF80020FDF79AF8002082
:10364000FDF797F80020FDF794F8B820FDF78EF805
:103650000320FDF78EF80120FDF78BF8BA20FDF767
:1036600085F80120FDF785F86420FDF747FB002071
:10367000FDF76CFB01209E4908604FF6FF70FDF7D7
:10368000B0FC1FB000BD2DE9F04F05460E461746B1
:103690009846DDF824A04FF0000B781B401C1FFA61
:1036A00080FB344613E021462846FDF79BF8FDF7E2
:1036B0007CF84FF0000906E08E48A0F800A009F160
:1036C00001001FFA80F9D945F6DB601C84B244453D
:1036D000E9DDBDE8F08F2DE9F84F07460D4690462D
:1036E0009946DDF828B0A8EB0700401C1FFA80FAC5
:1036F000A9EB0500401C80B20090002414E02819BA
:1037000081B23846FDF76EF8FDF74FF8002607E066
:1037100004FB0A603BF8100076490880701C86B2F2
:103720005645F5DB601C84B200988442E7DBBDE8B7
:10373000F88F2DE9FF4F84B081468A460020039020
:1037400002900698A0EB09050798A0EB0A06CDF8B1
:103750000490CDF800A0002D01DD012705E00DB992
:10376000002702E04FF0FF376D42002E02DD4FF0E0
:10377000010806E016B94FF0000802E04FF0FF38EC
:103780007642B54201DD2C4600E034464FF0000B96
:1037900021E0009A91B2019A90B2FDF72CFA0398B9
:1037A000284403900298304402900398A04205DD1B
:1037B0000398001B03900198384401900298A0429E
:1037C00005DD0298001B02900098404400900BF128
:1037D00001001FFA80FB601C8345DADD08B0BDE8FC
:1037E000F08FF0B504460D4616461F462B4632466E
:1037F00029462046FFF79DFF3B46224629462046A4
:10380000FFF797FF3B46324639462046FFF791FFC8
:103810003B46324629463046FFF78BFFF0BD2DE987
:10382000F04306460F469046002445460320A0EB91
:1038300048093CE07A1B91B2321990B2FDF7DBF9EE
:103840003A1B91B2721990B2FDF7D5F93A1991B2BB
:10385000721990B2FDF7CFF97A1991B2321990B27C
:10386000FDF7C9F97A1991B2321B90B2FDF7C3F98D
:103870003A1991B2721B90B2FDF7BDF97A1B91B261
:10388000321B90B2FDF7B7F93A1B91B2721B90B29E
:10389000FDF7B1F9641CB9F1000F03DAA000801D37
:1038A000814404E0601B80000A3081446D1EAC42FC
:1038B000C0DDBDE8F0832DE9F84F80460E4617467F
:1038C0001C46B3462046E31704EB5373DB10214636
:1038D0004FEAE47C04EB5C7C4FEAEC0CA4EBCC0CF0
:1038E000BCF1000F08D04FF0010C07E0442000208D
:1038F000808121420008006C4FF0000C6344224696
:1039000004EBD27C4FEA6C0C03FB0CF3DBB20093AC
:10391000A7F12000C7B2002556E00C2C07D107EB19
:1039200047009F4901EB800010F8059013E0102C30
:1039300005D19C4800EB071010F805900BE0182CFF
:1039400007D107EBC700984901EB800010F80590FC
:1039500001E0BDE8F88F4FF0000A2FE009F0800089
:1039600030B19248028831464046FDF752F907E0EF
:103970000A9828B98E48028831464046FDF749F931
:103980004FEA49604FEA1069701C86B28948408846
:10399000B04200DCDDE7A6EB0B00A0420AD15E4698
:1039A00008F101001FFA80F882480088404500DCD9
:1039B000CFE706E00AF1010000F0FF0ABAF1080FB4
:1039C000CCDB00BF681CC5B200988542A5DB00BFF8
:1039D000BFE710B50246012000E050430B1EA1F1E5
:1039E0000104E1B2F9D110BD2DE9FF4F81B00746C6
:1039F00091461E460E9D4FF0000A002439E0301B10
:103A0000401EC1B20A20FFF7E4FFB9FBF0F00A2123
:103A1000B0FBF1F201FB1208BAF1000F16D1701ED3
:103A2000A04213DDB8F1000F0ED10020AB4605EB2C
:103A3000DB71491001FB0471009088B22B462022F3
:103A40000299FFF738FF12E04FF0010A0020AB4661
:103A500005EBDB71491001FB0471009088B208F19D
:103A60003001CAB22B460299FFF725FF00BF601C48
:103A7000C4B2B442C3DB05B0BDE8F08F2DE9FF4FFF
:103A800082B0064692461F46DDE90F4800200190AD
:103A900000254DE0781B401EC1B20A20FFF799FFB8
:103AA000BAFBF0F00A21B0FBF1F201FB1209019818
:103AB00050BB781EA84227DDB9F1000F22D108F0D3
:103AC000800078B108F00100A34604EBDB714910D7
:103AD00001FB0561009088B2234630220399FFF76D
:103AE000EAFE0EE008F00100A34604EBDB7149108A
:103AF00001FB0561009088B2234620220399FFF75D
:103B0000DAFE13E00120019008F00100A34604EB67
:103B1000DB71491001FB0561009088B209F13001A9
:103B2000CAB223460399FFF7C6FE00BF681CC5B2A0
:103B3000BD42AFDB06B0BDE8F08F2DE9F847044683
:103B40000D4690469946DDE9096704F0FF0A08EB47
:103B500004001FFA80F809EB05001FFA80F916E04F
:103B6000444502DB5446A81985B24D4500DB14E0FC
:103B7000002000903A78334629462046FFF79BFE06
:103B8000304606EBD07104EB61018CB27F1C3878B3
:103B90007E2802DC38782028E2DA00BFBDE8F8870A
:103BA0000A5D00087E6100086E67000816000020AC
:103BB00018000020442000202DE9F04107460D4662
:103BC00016461C460121084601F00FFB384600F05E
:103BD000C9F916480480164805604660102014494B
:103BE00088600846C4600020086180204861002089
:103BF0008861C86108624FF4805048620020886282
:103C0000384600F051FABDE8F08110B504460021B5
:103C1000204600F074FA05480188204600F084FA36
:103C20000121204600F06BFA10BD00001A000020B0
:103C30005420002010B56FF0040000F074F92E48F5
:103C400000682E49B0FBF1F02D4908700846007855
:103C500000EB4001C1EBC0104FF6FF7101EAC0005C
:103C60002849088010BD0146254A12784A434FF082
:103C7000E0235A6100229A611A46126942F0010259
:103C80001A6100BF4FF0E022106900F001021AB182
:103C900000F48032002AF5D04FF0E022126922F0C1
:103CA00001024FF0E0231A6100229A617047014639
:103CB000144A12884A434FF0E0235A6100229A6165
:103CC0001A46126942F001021A6100BF4FF0E02269
:103CD000106900F001021AB100F48032002AF5D018
:103CE0004FF0E022126922F001024FF0E0231A6146
:103CF00000229A61704700000000002000127A0044
:103D00001C0000201E00002000BF704700BF4A4A70
:103D1000128802F04002002AF9D0C2B2464B1B1DA5
:103D20001A80704710B586B00446012144F20400A1
:103D300001F068FA4FF40070ADF8140003208DF81C
:103D4000160018208DF8170005A93C4800F09AFDD0
:103D50004FF48060ADF8140004208DF8170005A919
:103D6000364800F08FFD25208DF8000003208DF8E7
:103D700001008DF8020001208DF80300684600F074
:103D800088F801940020ADF80800ADF80A00ADF8FD
:103D90000C00ADF810000C20ADF80E0001A926486B
:103DA00000F001FF012240F22551234800F093FF6B
:103DB0000121214800F083FF06B010BD10B540F28C
:103DC00025511D4801F06CF810B31B4800F0E8FFC6
:103DD000C4B21B48008800F40040C8B918480088E5
:103DE00000F4804060B10A2C03D000201449088000
:103DF00020E01348008840F400401149088019E091
:103E00000D2C06D10E48008840F480400C490880F3
:103E100010E00B480088C0F30D000A490C54084814
:103E20000088401C0649088008460088C72801DD34
:103E30000020088010BD000000380140000801404B
:103E400024000020802000200948804709480047BE
:103E5000FEE7FEE7FEE7FEE7FEE7FEE7FEE7FEE73A
:103E6000FEE7FEE704480549054A064B7047000097
:103E70004705000831010008A8210020A8270020DC
:103E8000A8230020A823002031490143314A1160B2
:103E9000704770B5002100230F22C47804B32D4C65
:103EA000246804F4E064C4F5E064210AC1F1040369
:103EB000CA40447804FA03F184781440214309018C
:103EC000254C0678A155047804F01F050124AC4068
:103ED00005786D11AD0005F1E025C5F8004109E058
:103EE000047804F01F050124AC401C4D06787611BF
:103EF00045F8264070BD1A4A0A400243154B1B1F65
:103F00001A60704739B1134A121D12680243114BEF
:103F10001B1D1A6006E00F4A121D126882430D4BEA
:103F20001B1D1A607047042808D14FF0E021096971
:103F300041F004014FF0E022116107E04FF0E02171
:103F4000096921F004014FF0E0221161704700007F
:103F50000000FA050CED00E000E400E080E100E084
:103F600080FFFF1F01684FF6FE72114001600021C3
:103F7000016041608160C1608D49884208D18C49EF
:103F80000839496841F00F01894A083A51608AE0CE
:103F900087491431884208D185490839496841F078
:103FA000F001834A083A51607DE081492831884216
:103FB00008D17F490839496841F470617C4A083A60
:103FC000516070E07A493C31884208D1784908391B
:103FD000496841F47041764A083A516063E0744997
:103FE0005031884208D172490839496841F470213A
:103FF0006F4A083A516056E06D496431884208D1F1
:104000006B490839496841F47001694A083A5160BE
:1040100049E067497831884208D1654908394968DB
:1040200041F07061624A083A51603CE0614988425F
:1040300006D1011F096841F00F01021F116032E033
:104040005C491431884208D15A49091F096841F076
:10405000F001584A121F116025E056492831884264
:1040600008D15449091F096841F47061514A121F6F
:10407000116018E04F493C31884208D14D49091F71
:10408000096841F470414B4A121F11600BE0494925
:104090005031884207D14749091F096841F470210E
:1040A000444A121F1160704710B50022026847F69B
:1040B000F0739A430C6A8B6823430C6923434C6961
:1040C00023438C692343CC6923434C6A23438C6A82
:1040D00023431A430260CB6843600B6883604B68DC
:1040E000C36010BD0021016041608160C160016159
:1040F00041618161C161016241628162704721B1A8
:10410000026842F00102026004E002684FF6FE73AA
:104110001A40026070471AB103680B43036002E063
:1041200003688B43036070474160704701464868ED
:1041300080B2704701460020002201F080531BB17D
:104140001C4B083B1A6802E0194B083B1A6802EA4C
:1041500001030BB1012000E00020704700F0805106
:1041600019B11449091F086002E011490839486073
:10417000704701460020002201F080531BB10D4B17
:10418000083B1A6802E00A4B083B1A6802EA01037E
:104190000BB1012000E00020704700F0805119B100
:1041A0000449091F086002E0014908394860704766
:1041B000080002400804024030B943F2DB028100EB
:1041C000A1F1C0410A6005E043F2D2028100A1F1F1
:1041D000C0410A606FF07042411C8900A1F1C041EA
:1041E0000A608100A1F1C041C1F804217047102884
:1041F0000AD118214FF020421166402151664FF03C
:10420000FC319166D16610E01821F74A1160402117
:104210004FF02042C2F884104FF0FC31F24A0832CD
:1042200011604FF02042C2F88C1070471820EE4900
:104230002031086000200906C1F8A4004FF0FC30CE
:10424000E94928310860091D0860091D08607047A8
:10425000D0E901121143C268114302691143426956
:10426000114382691143C2691143026A1143426AD0
:104270001143826A1143C26A1143026B11430268FF
:104280009200A2F1C0421160816808290BD1016837
:104290008900A1F1C041096841F04002016889002C
:1042A000A1F1C0410A60416B0968426B526841EA62
:1042B0000211426B926841EA0221426B928941EA03
:1042C0000241426B128A41EA0251426B127D41EA7D
:1042D0000261426B926911430268521C9200A2F182
:1042E000C0421160C16AB1F5804F1BD1816B096872
:1042F000826B526841EA0211826B926841EA0221A4
:10430000826B128A41EA0251826B127D41EA02619C
:10431000826B9269114302689200A2F1C042C2F816
:10432000041107E06FF0704201688900A1F1C041FB
:10433000C1F80421704730B50021002200234468F1
:1043400044F0080485682C43C5682C4305692C4358
:10435000456944EA4524856944EA4531C4692468CD
:10436000C5696D6844EA0524C5692D8944EA054498
:10437000C5692D7B44EA0562046A2468056A6D6894
:1043800044EA0524056A2D8944EA0544056A2D7B23
:1043900044EA05630468102C05D14FF020442166DF
:1043A000A266E36608E0904C21604FF02044C4F818
:1043B00088208D4C0C34236030BD016841F0100121
:1043C000426841EA4221826841EA4231864A20320B
:1043D0001160C1680968C268526841EA0221C26876
:1043E000128941EA0241C268127B41EA02617E4AB7
:1043F00028321160016909680269526841EA0221A4
:104400000269128941EA02410269127B41EA0261B2
:10441000754A2C321160416909684269526841EA63
:1044200002214269128941EA02414269127B41EA52
:1044300002614FF02042C2F8B010704700210160C5
:104440000221416000218160C1600161416181619F
:10445000C16101624FF480514162490081620021D3
:10446000C16201630F21426B1160426B5160FF21F9
:10447000426B91600F21426BD160426B1161426BC4
:1044800051610021426B91610F21826B1160826B3F
:104490005160FF21826B91600F21826BD160826B32
:1044A0001161826B51610021826B91617047102113
:1044B0000160002141608160C160016141618161F1
:1044C000FC21C2691160C2695160C2699160C26910
:1044D000D160026A1160026A5160026A9160026AE8
:1044E000D16070470021016041608160FC21C26899
:1044F0001160C2685160C2689160C268D16002698F
:10450000116002695160026991600269D16042697B
:10451000116042695160426991604269D16070479F
:1045200051B18200A2F1C042126842F00103820040
:10453000A2F1C042136009E08200A2F1C0421268F9
:104540002A4B1A408300A3F1C0431A60704799B107
:10455000102808D14FF02042126E42F004024FF0B2
:1045600020431A661DE0204A126842F004024FF010
:104570002043C3F8802014E0102809D14FF02042D6
:10458000126E1A4BDB1E1A404FF020431A6608E0E9
:10459000154A1268154BDB1E1A404FF02043C3F832
:1045A0008020704748B110492031096841F004016A
:1045B0004FF02042C2F8A01009E00B4920310968F1
:1045C0000A4AD21E11404FF02042C2F8A010704794
:1045D000B9B110280CD14FF02042126E42F04002C7
:1045E0004FF020431A661FE0800000A0FEFF0F007E
:1045F000724A126842F040024FF02043C3F8802014
:1046000012E0102808D14FF02042126E6C4B1A4075
:104610004FF020431A6607E0684A1268684B1A4058
:104620004FF02043C3F88020704701460020102936
:1046300003D14FF02042506F02E0604A14321068FC
:10464000704710B5F2B1102807D14FF020435B6ED0
:104650000B434FF02044636632E0B0F5807F08D111
:10466000564B1B1D1B680B434FF02044C4F884308D
:1046700026E0524B24331B680B434FF02044C4F810
:10468000A4301DE0102807D14FF020435B6E8B4310
:104690004FF02044636613E0B0F5807F08D1474BAC
:1046A0001B1D1B688B434FF02044C4F8843007E087
:1046B000424B24331B688B434FF02044C4F8A43092
:1046C00010BD10B5024600200023102A03D14FF080
:1046D0002044636E09E0B2F5807F03D1374C241D7E
:1046E000236802E0354C2434236803EA01040CB14A
:1046F000012000E0002010BD102807D14FF020421B
:10470000526E8A434FF020435A6613E0B0F5807F23
:1047100008D12A4A121D12688A434FF02043C3F879
:10472000842007E0254A243212688A434FF0204350
:10473000C3F8A420704770B502460020002300246F
:104740000025102A03D14FF02046736E09E0B2F520
:10475000807F03D1194E361D336802E0174E243690
:10476000336803EA010403EAD10514B10DB1012055
:1047700000E0002070BD102808D14FF02042526E9A
:1047800022EAD1024FF020435A6615E0B0F5807F4F
:1047900009D10A4A121D126822EAD1024FF02043C1
:1047A000C3F8842008E0054A2432126822EAD102C4
:1047B0004FF02043C3F8A42070470000800000A001
:1047C000BFFF0F0010B50446CC48844208D1012138
:1047D000042000F031FD0021042000F02DFD46E012
:1047E000C748844208D10121082000F025FD00219E
:1047F000082000F021FD3AE0C248844208D101219E
:10480000102000F019FD0021102000F015FD2EE011
:10481000BD48844208D10121202000F00DFD002177
:10482000202000F009FD22E0B848844208D101218F
:10483000402000F001FD0021402000F0FDFC16E0CA
:10484000B348844208D10121802000F0F5FC00210A
:10485000802000F0F1FC0AE0AE48844207D101213B
:10486000801500F0E9FC0021A01500F0E5FC10BD6A
:1048700010B50121084600F0DFFC0021012000F006
:10488000DBFC10BD2DE9F04102460025002600208A
:1048900000230024002791F803C00CF00F0591F8C5
:1048A00003C00CF0100CBCF1000F03D091F802C053
:1048B0004CEA050591F800C0BCF1000F31D0146836
:1048C00000202BE04FF0010C0CFA00F3B1F800C00F
:1048D0000CEA03069E4220D183004FF00F0C0CFA25
:1048E00003F7BC4305FA03FC4CEA040491F803C047
:1048F000BCF1280F06D14FF0010C0CFA00FCC2F8F5
:1049000014C00AE091F803C0BCF1480F05D14FF084
:10491000010C0CFA00FCC2F810C0401C0828D1D3CE
:104920001460B1F800C0BCF1FF0F34DD5468002002
:104930002EE000F1080C4FF0010808FA0CF3B1F872
:1049400000C00CEA03069E4221D183004FF00F0CF9
:104950000CFA03F7BC4305FA03FC4CEA040491F893
:1049600003C0BCF1280F05D100F1080C08FA0CF8BF
:10497000C2F8148091F803C0BCF1480F07D100F1D0
:10498000080C4FF0010808FA0CF8C2F81080401C1F
:104990000828CED35460BDE8F0814FF6FF71018046
:1049A000022181700421C170704702460020936883
:1049B0000B400BB1012000E00020704701468868E1
:1049C00080B2704702460020D3680B400BB1012033
:1049D00000E0002070470146C86880B2704701615E
:1049E0007047416170470AB1016100E04161704761
:1049F000C16070474FF480320A43826181618261F5
:104A000082698269704702460020434B18684FF65E
:104A10008073184040EA021008433F4B186070470B
:104A20003E49C8617047F0B50A46002300240021C2
:104A3000002500F00046B6F1004F02D1364EF16974
:104A400001E0354E7168C0F3034583B200F44016AF
:104A5000B6F5401F08D121F070612F4E766826F020
:104A600070662D4F7E6012E000F48016B6F5801F50
:104A700006D1032606FA05F4A14341F0706106E071
:104A8000460D360103FA06F6B14341F0706122B1DA
:104A9000460D360103FA06F6314300F00046B6F142
:104AA000004F02D11C4EF16101E01B4E7160F0BD60
:104AB00030B500228B071C0F0F2303FA04F2164BAC
:104AC00008338C1053F824309343134C08348D1062
:104AD00044F8253023468C1053F824308C07240FDB
:104AE00000FA04F423430C4C08348D1044F82530AC
:104AF00030BD0A49DC310860704700000008014001
:104B0000000C014000100140001401400018014059
:104B1000001C014000200140000001400000204234
:104B200010B50446FB48844209D10121880300F0F6
:104B300083FB00214FF4804000F07EFB32E0F6481A
:104B4000844209D10121480400F083FB00214FF485
:104B5000003000F07EFB25E0F048844209D10121BD
:104B6000880400F076FB00214FF4802000F071FBF8
:104B700018E0EB48844209D10121C80400F069FB28
:104B800000214FF4002000F064FB0BE0E548844274
:104B900008D10121080500F05CFB00214FF48010D2
:104BA00000F057FB10BD2DE9F04786B005460E46D4
:104BB0000024A24600BFA1460027B08900B100BF73
:104BC0002F462C8A4CF6FF700440F08804432C8258
:104BD000AC894EF6F3100440B088318908437189DE
:104BE00008430443AC81AC8A4FF6FF400440B089CF
:104BF0000443AC8201A800F098FAC648874202D16B
:104C0000DDF810A001E0DDF80CA0A88900F4004058
:104C100040B10AEBCA0000EB0A1031684900B0FB52
:104C2000F1F807E00AEBCA0000EB0A1031688900CE
:104C3000B0FBF1F86420B8FBF0F004012009642116
:104C400001FB1089A88900F4004040B1322000EB3C
:104C5000C900B0FBF1F000F00700044308E0322087
:104C600000EB09106421B0FBF1F000F00F000443E9
:104C70002C8106B0BDE8F0874FF416510160002189
:104C80008180C18001810C21418100218181704797
:104C900010B502460020108A4FF2FF0318400B881F
:104CA0004C8823438C882343CC88234318431082A9
:104CB00010BD0021018041808180C180704721B1F9
:104CC000828942F40052828104E082894DF6FF73AA
:104CD0001A4082817047F0B5034600240026002563
:104CE000002040F66A17B94200D100BF1846C1F350
:104CF000421401F01F06012707FA06F5012C01D125
:104D00000C3004E0022C01D1103000E014301AB154
:104D100007682F43076002E00768AF430760F0BDF4
:104D20001AB1838A0B43838202E0838A8B43838296
:104D30007047028A4FF6F0731A400282028A0A43D1
:104D40000282704782894FF2FF731A408281828902
:104D50000A438281704721B1828942F00202828136
:104D600004E082894FF6FD731A4082817047028AFF
:104D70004FF6DF731A400282028A0A4302827047AA
:104D800021B1028A42F48042028204E0028A4BF698
:104D9000FF731A4002827047C1F308028280704795
:104DA00001468888C0F308007047818941F00101FD
:104DB00081817047028BD2B20283028B42EA0122C8
:104DC00002837047028B02F47F420283028B0A4304
:104DD0000283704721B1828A42F02002828204E07D
:104DE000828A4FF6DF731A408282704721B1828A2D
:104DF00042F01002828204E0828A4FF6EF731A407A
:104E00008282704721B1828A42F00802828204E0E5
:104E1000828A4FF6F7731A408282704721B18289E5
:104E200042F40042828103E08289C2F30E02828151
:104E3000704721B1828A42F40062828204E0828A51
:104E40004FF2FF731A4082827047828A4FF6FB73DB
:104E50001A408282828A0A438282704721B1828A02
:104E600042F00202828204E0828A4FF6FD731A4009
:104E70008282704702460020B1F5007F00D100BF5A
:104E800013880B400BB1012000E00020704701F4B3
:104E90000072B2F5007F00D100BFCA4302807047A4
:104EA00070B50246002400230025002040F66A1653
:104EB000B14200D100BFC1F3421501F01F0301262A
:104EC00006FA03F3012D02D19689334006E0022D44
:104ED00002D1168A334001E0968A33400C12012633
:104EE00006FA04F41688344013B10CB1012000E036
:104EF000002070BD10B50022002340F66A14A142C4
:104F000000D100BF0A1201249440A3B2DC43048004
:104F100010BD00000038014000440040004800403F
:104F2000004C004000500040DF48006840F00100A5
:104F3000DD49086008464068DC490840DA494860B5
:104F400008460068DA490840D74908600846006802
:104F500020F4802008600846406820F4FE00486085
:104F60004FF41F0088607047CF49096821F48031F1
:104F7000CD4A11601146096821F480211160B0F515
:104F8000803F03D0B0F5802F0ED106E0C6490968F6
:104F900041F48031C44A116007E0C349096841F413
:104FA000A021C14A116000E000BF00BF704710B5EA
:104FB00001460022002300204A11012A02D1BA4CE6
:104FC000236806E0022A02D1B74C236A01E0B64CFE
:104FD000636A01F01F02012494401C400CB10120BF
:104FE00000E0002010BD38B500200090002400250E
:104FF00000BF3120FFF7DBFF05460098401C009002
:105000000098B0F5A06F01D0002DF2D03120FFF74D
:10501000CEFF08B1012400E00024204638BD01463F
:105020000020A14A106820F0F80040EAC10010609A
:105030007047A04908607047024600209A4B5868A4
:1050400020F47C1042EA01031843974B58607047E4
:1050500098490866704701460020934A506820F03E
:1050600003000843506070478F48406800F00C0010
:105070007047014600208C4A506820F0F000084339
:105080005060704701460020874A506820F4E06075
:1050900008435060704701460020834A506820F45E
:1050A000605040EAC1005060704729B17E4A527A90
:1050B00002437D4B5A7204E07B4A527A82437A4B18
:1050C0005A7270477B49D83108607047014600200A
:1050D000754A506820F440400843506070470021F2
:1050E000714A20321170704A82F82010012802D0D3
:1050F00004280AD104E001216B4A2032117005E036
:105100000521694A2032117000E000BF00BF7047DE
:105110006949086070476449096A0143624A11623B
:105120007047654944390860704730B50021002256
:10513000002400235C4D6D6805F00C0121B10429A9
:1051400005D0082923D105E05C4D056022E05B4DC8
:1051500005601FE0544D6D6805F47012524D6D6886
:1051600005F48034022505EB92421CB9544D554399
:1051700005600BE04C4D6D6805F400351DB1504DD8
:105180005543056002E04D4D5543056002E04B4D2F
:10519000056000BF00BF444D6D6805F0F0010909CE
:1051A000484D6B5C0568DD4045603F4D6D6805F41A
:1051B000E061090A434D6B5C4568DD4085603A4D0E
:1051C0006D6805F46051C90A3E4D6B5C4568DD4071
:1051D000C560354D6D6805F44041890B3A4D6B5CF7
:1051E000C568B5FBF3F5056130BD29B12E4A52699A
:1051F00002432D4B5A6104E02B4A526982432A4BE9
:105200005A61704729B1284A92690243264B9A6134
:1052100004E0254A92698243234B9A61704729B181
:10522000214AD2690243204BDA6104E01E4AD26966
:1052300082431D4BDA61704729B11B4AD268024391
:10524000194BDA6004E0184AD2688243164BDA60E0
:10525000704729B1144A12690243134B1A6104E0E2
:10526000114A12698243104B1A6170471249403942
:10527000086070470F49C86470470B49C871704790
:105280000948406A40F0807007494862704701460B
:105290000020054A92680A400AB1012000E000207F
:1052A0007047014988727047001002400000FFF803
:1052B000FFFFF6FE000042428004424200127A00E4
:1052C00000093D0026000020360000207047000045
:1052D0000FB4044910B503AA029800F0C3F810BC3B
:1052E0005DF814FB200000202DE9F0410E46044635
:1052F000002020622046E168884730B3252805D089
:10530000D4E901219047206A401CF2E7E168204679
:1053100000278847050018D0A5F14100192802D8B8
:1053200020354FF400673246294620462760FAF7B9
:1053300039FF40B1012804D0F61D26F007060836D3
:10534000D8E7361DD6E72846DAE7206ABDE8F081BF
:1053500070B504460D4621461068AFF300802188E1
:10536000090502D50F4A7A4402E00E4A7A440E3209
:10537000002104F1240305E000F00F060009965D0A
:105380005E54491C0028F7D120780023000704D57B
:10539000702D02D009B1022311322046BDE87040C1
:1053A00000F006B8602100007047704770477047F2
:1053B0002DE9F0470D4699469246044600F124082F
:1053C0000168880604D5E06921F01001216000E041
:1053D0000120A84201DD471B00E00027A1697A19DE
:1053E00002EB0900081AA0612078C00602D420460A
:1053F000AFF30080002608E0D4E901211AF8060086
:105400009047206A401C761C20624E45F4DB2078D1
:10541000C0060AD52046AFF3008006E0D4E901219A
:1054200030209047206A401C2062381EA7F10107F7
:10543000F4DC07E0D4E9012118F805009047206A60
:10544000401C2062281EA5F10105F3DC2046AFF3C5
:1054500000802078000602D50220BDE8F0870120F8
:10546000FBE70000074B70B50D467B4400F011F8D8
:105470000446284600F020F810B14FF0FF3070BD10
:10548000204670BD9FE8FFFF01694A1C0261087851
:10549000704700B58FB0CDE9013100210591054974
:1054A0007944CDE9031011466846FFF71DFF0FB0A0
:1054B00000BD0000E5FFFFFF007B00F080007047AB
:1054C000754600F02BF8AE4605006946534620F0BD
:1054D0000700854618B020B5FEF7C4FCBDE82040A3
:1054E0004FF000064FF000074FF000084FF0000BA0
:1054F00021F00701AC46ACE8C009ACE8C009ACE853
:10550000C009ACE8C0098D46704710B50446AFF33A
:1055100000802046BDE81040FAF756BE00487047AC
:10552000482100204FEA1153A3F58063D3F11E03F5
:10553000A8BFD3F1200C08DB4FF0004242EAC122A1
:1055400052EA505232FA03F0704709420BD4102B42
:10555000C4BF0020704703F5787CBCF1FF3F05D045
:105560004FF0FF3070474FF00000704770B500F00B
:10557000C3F800BF4992248000207047F0E7B0FADA
:1055800080F310FA03F10AD0C3F11D0303F5806321
:105590004FEA41504FEA035202EBD12170474FF0DE
:1055A00000007047DFF848C170B51CEA111E1EBF2D
:1055B0001CEA13159EEA0C0F95EA0C0F00F06F80A1
:1055C00081EA030423EA4C134EEAD47E21EA4C110B
:1055D00041F4801143F48013AE44A1FB024CA0FBC4
:1055E0000365AEF17F7E361955EB0C05A1FB034C2C
:1055F0004CF10003A0FB021C16EB0C06654153F1B5
:105600000003094218BF46F0010613F4007F0BD1D6
:105610004FEA03314FEA0530340341EA155140EABD
:1056200016506FF003020AE04FEAC3214FEAC5208B
:10563000F40241EA555140EA56506FF0020202EB83
:105640002E4201EB025585EACE710AD05FEA440C86
:1056500018BF24F0004450F1000041F1000120EA9D
:10566000D47040F2FE7C624500D270BDA84214BFE7
:105670004FF080444FF04044002E08BF0024BEF19C
:10568000806FA8BFA1F1C041BDE8704080F2828068
:105690004FF0000001F1C04101F0004170479EEA67
:1056A0000C0F0CEA131518BF95EA0C0F06D04FF03B
:1056B000000081EA030E0EF0004170BD00F01CF8FE
:1056C0008900013E00F007B800F009B84FEA430C2A
:1056D0005FEA5C5C08D081EA030100F05BB84FEA46
:1056E000410C5FEA5C5CF6D14FF000000149704765
:1056F0000000FF070000F87F0EF1020E2EF0030EEF
:105700005EF8046B364205D4012A43EB030515F518
:10571000001F12D8012841EB010C1CF5001F0CD80A
:105720000ED14FEAD17C15F5001F0CEB4C0C0CF19F
:10573000020C08BF4CEBD37C04E04FF0080C01E0F6
:105740004FEAD37C0CEB4C0526FA05F606F007066B
:10575000B6F1040C06D20EEB860CBDE870404CF09E
:10576000010C6047DFE80CF0090B02024FF000412A
:105770004FF00000A1F5002170BD19461046012828
:1057800051EB010418BFD4F5001484BF002001F0D0
:10579000004170BD0808A0F500114FEA31017047C3
:1057A00090EA010F48BF81F0004100F12E82421AB9
:1057B0003CBF801A89184FEAD0524FF07F4C1CEA48
:1057C000410FA2EBD15318BF9CEA026F00F03B805F
:1057D0004FF0004C4CEA00204CEA012121FA03FC76
:1057E00010EB0C0C1ED202F1FF325FEA1C2040EBE2
:1057F000C25038BF70471CF07F0F4FEA400C18BFF3
:10580000BCF17F4F38BF7047C3F12003994008BFF8
:1058100020F00100BCF17F4F38BF7047A0F1C040BD
:1058200000F0DDB94FEA3C00000A40EBC25028BF4F
:105830001CF0FF0F4FEA400CE6D018BFBCF17F4FC1
:1058400038BF7047EAE79CEA026F05D010EA5C0FA8
:1058500008BF00F00040704710B500F07AF900BFB3
:1058600064FBBE3E4FF47F0C1CEAD0121EBF1CEA44
:10587000D11392EA0C0F93EA0C0F00F0858090EAA6
:10588000010F48BF42F4807240F4000C41F4000064
:105890002CF07F4120F07F4000B58142A2EB030253
:1058A0000FF2081CACEB504EC0F100009EF800E077
:1058B0004FEA4E0E00FB0EFC38BF49004FEA2C1C8D
:1058C00002F5FA020CFB0EF34FEACE1E4FEA112C42
:1058D0004FEAC1210EEB635E42EB22420EFB0CFC51
:1058E0004FEA1C5300FB03114FEA112C4FEA013120
:1058F0000EFB0CFC4FEADC4C00FB0C11C14228BF34
:1059000009184CEB03335DF804EB10EB410143EB5A
:10591000C250B2F57C0F38BF704729D512F0F00F96
:105920001CBF00F1C04000F000407047008182833E
:105930008485868788898B8C8D8E8F91929395969E
:1059400097999A9C9D9FA0A2A3A5A7A8AAACAEB028
:10595000B2B3B5B7B9BCBEC0C2C5C7C9CCCED1D42D
:10596000D7D9DCDFE2E6E9ECF0F3F7FAFE0000005D
:105970004FEA400C0CF1807CBCF17E4F28BF704791
:10598000B0F1C04000F02BB990EA010F0CEAD1133E
:1059900048BF42F48072624538BF634507D213F4B2
:1059A0007F0F16D080EA010000F00040704710B56C
:1059B00000F0CFF8097EFC3E00F005B880EA010057
:1059C00000F00040704780EA010000F0004000F065
:1059D00006B912F47F0F04BF0248704780EA010045
:1059E00000F0FDB80000C07FC10DD1F19E0206DBC2
:1059F0004FEA002343F0004323FA02F070470042CD
:105A000007D54FEA4001B1F1FE4F02D24FF000003E
:105A1000704710B500F09DF849922480002070472F
:105A20006FEA200070470000B0FA80F310FA03F22A
:105A3000C3F19D030AD0D90501EB1220530638BFEC
:105A4000704700F1010008BF20F00100704700001E
:105A50004FF47F0C1CEAD0121EBF1CEAD11392EA4D
:105A60000C0F93EA0C0F00F0478090EA010F48BF3B
:105A700042F480724FF0004C4CEA00204CEA0121C5
:105A800002EB0302A0FB0113A2F50002002918BFDC
:105A900043F001035B0028BF4FEA330342EB22428D
:105AA0005FEA132C4CEBC2502EBFBCEB436FB2F538
:105AB0007C0F70474FEA036CBCF1004F08BF20F029
:105AC0000100B2F57C0F38BF70470BD582F0FF02A2
:105AD00012F5803FC8BF704700F1C040D8BF00F04A
:105AE0000040704700F5000C5FEA4C0C48BF70475F
:105AF000B0F1C04000F073B890EA010F0CEAD11386
:105B000048BF42F48072624538BF634504D280EAE0
:105B1000010000F00040704710B500F01AF800BF17
:105B20008900013E00F007B800F009B85FEA410CB7
:105B30005FEA1C6C08D080EA010000F050B85FEA10
:105B4000400C5FEA1C6CF6D14FF00040A0F58000DD
:105B500070470EF1020E2EF0030E5EF8044B244245
:105B600004D44FEA4102B2F17F4F11D84FEA40030B
:105B7000B3F17F4F0CD80ED14FEAD07CB2F17F4FFA
:105B80000CEB4C0C0CF1020C08BF4CEBD17C04E08C
:105B90004FF0080C01E04FEAD17C0CEB4C0324FAE7
:105BA00003F404F00704B4F1040C06D20EEB840CE9
:105BB000BDE810404CF0010C6047DFE80CF007082E
:105BC00002024FF00040A0F5800010BD08464200E0
:105BD00018BFD2F1807288BF00F0004010BDFF21D5
:105BE00041EAD050C005704780F0004090EA010FB4
:105BF0007FF5DDAD81F0004100F007B890EA010FBC
:105C000048BF81F000413FF5D2AD421A04D882F07E
:105C10000042A0EB020011444FEAD0524FF07F4CFB
:105C20001CEA410FA2EBD15318BF9CEA026F4AD085
:105C30004FF0004C4CEA00204CEA012121FA03FC11
:105C4000B0EB0C0C0FD412F0FE0F36D05FEA4C0014
:105C50001DD5001240EBC25038BF70471CF03F0FFB
:105C600018BF70470BE0A2F101025FEA1C2040EB75
:105C7000C25038BF70471CF07F0F18BF7047C3F188
:105C80002003994014BF401E20F001007047800897
:105C90004FEA122308BF7047B0FA80FCA2EB0C0257
:105CA000CCF1280C60FA0CF093EA122F04BF00EB41
:105CB000C25070474FEAC3707047130A5FEADC10A6
:105CC00008BF7047F6E79CEA026F04D010EA5C0F49
:105CD00008BF0020704710B5FFF73BFF40DFF63EDE
:105CE00081F000407047414C49454E54454B20459A
:105CF0006C6974652053544D3332463120444D4114
:105D000020B4AEBFDACAB5D1E9000000000000003F
:105D1000000000000000000000003F400000000004
:105D2000000000003000400030004000000009008A
:105D30000BC03D000BC03D00090018C024407FE0AF
:105D4000224031800000180024C01B000D8032402A
:105D5000018003801C4027401C8007400040100049
:105D600060000000000000000000000000000000D3
:105D70001F80204040200000402020401F80000065
:105D80000000090006001F80060009000000040052
:105D900004003F80040004000000001000600000C8
:105DA00000000000000004000400040004000400DF
:105DB0000000000000400000000000000000002083
:105DC00001C006003800400000001F802040204035
:105DD00020401F800000000010403FC00040000035
:105DE000000018C0214022402440184000001080CC
:105DF0002040244024401B80000002000D001100C0
:105E00003FC0014000003C802440244024402380C7
:105E100000001F80244024403440038000003000F4
:105E2000200027C03800200000001B8024402440B0
:105E300024401B8000001C0022C0224022401F8002
:105E4000000000000000084000000000000000000A
:105E500000000460000000000000000004000A00D0
:105E600011002080404009000900090009000900D4
:105E7000000000004040208011000A0004001800CB
:105E8000200023402400180000001F8020402740ED
:105E900029401F400000004007C039000F0001C02A
:105EA000004020403FC0244024401B8000001F8051
:105EB0002040204020403080000020403FC0204053
:105EC00020401F80000020403FC024402E4030C0B2
:105ED000000020403FC024402E00300000000F0092
:105EE0001080204022403380020020403FC0040048
:105EF00004003FC02040204020403FC020402040C0
:105F000000000060202020203FC020002000204012
:105F10003FC024400B0030C0204020403FC0204004
:105F20000040004000C03FC03C0003C03C003FC0F8
:105F3000000020403FC00C4023003FC020001F80D5
:105F40002040204020401F80000020403FC02440CF
:105F50002400180000001F802140214020E01FA0E5
:105F6000000020403FC02440260019C0004018C057
:105F700024402440224031800000300020403FC0B7
:105F800020403000000020003F80004000403F8063
:105F9000200020003E0001C007003800200038002B
:105FA00007C03C0007C038000000204039C0060090
:105FB00039C0204000002000384007C03840200091
:105FC0000000304021C02640384020C000000000C2
:105FD00000007FE0402040200000000070000C0026
:105FE0000380004000000000402040207FE00000CF
:105FF0000000000020004000200000000000001011
:106000000010001000100010001000000000400000
:10601000000000000000000002800540054003C0B1
:10602000004020003FC00440044003800000000006
:106030000380044004400640000000000380044048
:1060400024403FC00040000003800540054003405D
:106050000000000004401FC0244024402000000035
:1060600002E0055005500650042020403FC0044087
:10607000040003C000400000044027C000400000AE
:10608000000000100010041027E000000000204075
:106090003FC00140070004C00440204020403FC0F2
:1060A00000400040000007C0040007C0040003C017
:1060B0000000044007C00440040003C0004000008A
:1060C00003800440044003800000041007F00450E3
:1060D000044003800000000003800440045007F0E7
:1060E0000010044007C0024004000400000000004B
:1060F00006400540054004C00000000004001F8069
:10610000044000400000040007800040044007C035
:1061100000400400070004C00180060004000600DF
:1061200001C0070001C006000000044006C00100D5
:1061300006C0044000000410071004E001800600BF
:1061400004000000044005C00640044000000000B8
:10615000000004007BE04020000000000000000080
:10616000FFF000000000000040207BE00400000081
:10617000000040008000400020002000400000009F
:10618000000000000000000000000000000000000F
:10619000000000001FCC000C000000000000000008
:1061A000080030006000080030006000000002209D
:1061B00003FC1E20022003FC1E2002200000000021
:1061C0000E1811043FFF10840C78000000000F002F
:1061D00010840F3800C00778188400780000007819
:1061E0000F8410C411240E9800E4008400080800F5
:1061F00068007000000000000000000000000000C7
:106200000000000007E01818200440020000000011
:1062100040022004181807E00000000000000240BF
:10622000024001800FF00180024002400000008027
:10623000008000800FF800800080008000000001D6
:10624000000D000E00000000000000000000000033
:1062500000800080008000800080008000800000BE
:10626000000C000C00000000000000000000000016
:1062700000060018006001800600180020000000E1
:1062800007F0080810041004080807F000000000D8
:10629000080408041FFC00040004000000000000C3
:1062A0000E0C10141024104411840E0C0000000079
:1062B0000C1810041104110412880C700000000066
:1062C00000E00320042408241FFC00240000000038
:1062D0001F98108411041104108810700000000031
:1062E00007F00888110411041888007000000000ED
:1062F0001C00100010FC13001C0010000000000027
:106300000E3811441084108411440E38000000002F
:106310000700088C10441044088807F000000000B3
:1063200000000000030C030C00000000000000004F
:106330000000000101060000000000000000000055
:106340000080014002200410080810040000022010
:106350000220022002200220022002200000000071
:106360001004080804100220014000800000000012
:106370000E001200100C106C10800F00000003E0E3
:106380000C1813E4142417C4082807D000000004D4
:10639000003C03C41C40074000E4001C000410043F
:1063A0001FFC1104110411040E880070000003E0AA
:1063B0000C1810041004100410081C100000100425
:1063C0001FFC100410041004080807F0000010045B
:1063D0001FFC1104110417C4100408180000100455
:1063E0001FFC1104110017C010000800000003E09A
:1063F0000C181004100410441C7800400000100415
:106400001FFC10840080008010841FFC100400001A
:10641000100410041FFC100410040000000000030E
:106420000001100110011FFE1000100000001004F8
:106430001FFC110403801464181C100400001004D5
:106440001FFC1004000400040004000C00001004F1
:106450001FFC1F0000FC1F001FFC100400001004A4
:106460001FFC0C04030000E010181FFC100007F0D4
:106470000808100410041004080807F000001004B5
:106480001FFC10841080108010800F00000007F0A7
:10649000081810241024101C080A07F20000100429
:1064A0001FFC1104110011C011300E0C000400007B
:1064B0000E1C11041084108410441C3800001800B5
:1064C000100010041FFC1004100018000000100041
:1064D0001FF810040004000410041FF8100010003E
:1064E0001E0011E0001C007013801C0010001FC073
:1064F000103C00E01F0000E0103C1FC00000100432
:10650000180C163401C001C01634180C1004100009
:106510001C00130400FC13041C00100000000804FD
:10652000101C1064108413041C04101800000000D8
:10653000000000007FFE4002400240020000000018
:1065400030000C0003800060001C0003000000000D
:106550004002400240027FFE0000000000000000F8
:10656000000020004000400040002000000000012A
:106570000001000100010001000100010001000014
:10658000400040002000000000000000000000006B
:106590000098012401440144014400FC000410005F
:1065A0001FFC008801040104008800700000000046
:1065B000007000880104010401040088000000004C
:1065C000007000880104010411081FFC0004000091
:1065D00000F8014401440144014400C800000000E7
:1065E000010401040FFC1104110411001800000043
:1065F00000D601290129012901C901060000100462
:106600001FFC008401000100010400FC00040000E4
:106610000104190419FC000400040000000000003B
:10662000000300010101190119FE0000000010041F
:106630001FFC0024004001B4010C01040000000014
:10664000100410041FFC00040004000000000104FA
:1066500001FC0104010001FC0104010000FC010433
:1066600001FC008401000100010400FC00040000A2
:1066700000F8010401040104010400F80000010114
:1066800001FF008501040104008800700000000083
:106690000070008801040104010501FF00010104EC
:1066A000010401FC008401040100018000000000DD
:1066B00000CC0124012401240124019800000000E1
:1066C0000100010007F801040104000000000100BE
:1066D00001F8000400040004010801FC00040100AA
:1066E00001800170000C001001600180010001F0C8
:1066F000010C003001C00030010C01F0010000006D
:106700000104018C00740170018C0104000001017E
:1067100001810171000E001801600180010000007C
:106720000184010C013401440184010C00000000CB
:1067300000000000000001003EFC4002400200009A
:10674000000000000000FFFF00000000000000004B
:10675000400240023EFC010000000000000000007A
:106760006000800080004000400020002000000009
:106770000000000000000000000000000000000019
:106780000000000000000000000000000000000009
:1067900000000000000000000000000000000000F9
:1067A000000F80380FFE380F803800000000000016
:1067B00000000000000000000000000001000006D2
:1067C00000000C00003800003100000600000C0042
:1067D0000038000030000000000000000000618070
:1067E0000067F807F9800061800061800061800027
:1067F00061800067F807F9800061800000000000F8
:106800000000000001C0E003E0F0063008041808B2
:106810001FFFFE040E080787F00381E00000000060
:10682000000001F000060C00040408060C7001F9D9
:10683000C0000E00003BE000EC18070808040C182C
:106840000003E00000000001E00007F003F8180476
:106850001C0804170807E1D003C0E00023B0003C87
:1068600008002008000010000000000000010000E7
:106870003100003200001C00000000000000000099
:106880000000000000000000000000000000000008
:1068900000000000000000000000000000007F0079
:1068A00001FFC00780F00C00181000042000020057
:1068B00000000000002000021000040C00180780F7
:1068C000F001FFC0007F0000000000000000000099
:1068D0000000000000000000000042000066000010
:1068E0006600003C0000180003FFC0001800003CD8
:1068F0000000660000660000420000000000080082
:1069000000080000080000080000080001FFC000A7
:10691000080000080000080000080000080000004F
:106920000000000100003100003200001C000000E7
:106930000000000000000000000000000000000057
:106940000000000000000800000800000800000827
:10695000000008000008000008000008000008000F
:1069600000080000000000000000000000003800E7
:1069700000380000380000000000000000000000A7
:106980000000000000000000000000000000000601
:1069900000001C000070000180000E0000380000A4
:1069A000C0000700001C00003000000000000000D4
:1069B00000007F8001FFE0038070060018040008DB
:1069C00004000806001803807001FFE0007F8000CB
:1069D00000000000000000000100080100080100A4
:1069E0000803FFF807FFF80000080000080000088F
:1069F00000000000000000000001C03802C0580480
:106A00000098040118040218040418061C1803F85E
:106A10001801E0F800000000000000000001C0E0E4
:106A200003C0F00400080408080408080618080356
:106A3000F41801E7F00001E0000000000000000091
:106A400000000300000D000011000061000081083B
:106A500003010807FFF80FFFF80001080001080014
:106A600000000000000000E007FCD0060808061047
:106A700008061008061008061838060FF00607C0AA
:106A8000000000000000000000003F8001FFE00364
:106A900084300208180410080410080410080718AD
:106AA00010030FF00007C00000000000000000000D
:106AB00003C0000700000600000600F80607F806FD
:106AC000180006E0000700000600000000000000BB
:106AD0000001E1E003F7F006341004180804180878
:106AE000040C08040C0806161803F3F001C1E000BA
:106AF000000000000000F80003FC30030638040228
:106B0000080402080402080404100308F001FFC08E
:106B1000007F0000000000000000000000000000F6
:106B2000000000000000703800703800703800006D
:106B30000000000000000000000000000000000055
:106B400000000000000000000000301A00301C00AF
:106B50000000000000000000000000000000000035
:106B600000000000000800001400002200004100A6
:106B7000008080010040020020040010080008008E
:106B80000000000000002100002100002100002181
:106B90000000210000210000210000210000210050
:106BA00000210000000000000000000008000804B0
:106BB00000100200200100400080800041000022FF
:106BC0000000140000080000000000000003C000E6
:106BD00004C000040000080038080F38080838080E
:106BE00010000C300007E00003C0000000000000AF
:106BF00000003F8000FFE0038070020F10067088E5
:106C000004C088048308047F8802C0900301200028
:106C1000FE400000080000180001F8003E0801C214
:106C20000007020007E20000FE00001FC80001F894
:106C300000003800000804000807FFF807FFF80408
:106C4000080804080804080804080806180803F4DB
:106C50001801E7F00001E0000000000000003F80A4
:106C600001FFE0038070020018040008040008041B
:106C700000080400100600200780C0000000040087
:106C80000807FFF807FFF8040008040008040008DC
:106C900004001802001003807001FFE0007F8000F4
:106CA000000004000807FFF807FFF80408080408BC
:106CB00008040808040808043E0804000806001830
:106CC00001006000000004000807FFF807FFF80457
:106CD0000808040800040800040800043E00060038
:106CE00000060000018000000000000000003F805E
:106CF00001FFE00380700600180400080402080485
:106D000002080203F00783F0000200000200040002
:106D10000807FFF807FFF80408080008000008004B
:106D200000080000080004080807FFF807FFF8043F
:106D3000000800000000000004000804000804002F
:106D40000807FFF807FFF80400080400080400081B
:106D50000000000000000000000000060000070026
:106D6000000104000104000104000307FFFE07FF07
:106D7000FC04000004000004000004000807FFF801
:106D800007FFF8040C08001800003E0004C7800547
:106D900003C80600F80400380400180000080400C6
:106DA0000807FFF807FFF8040008000008000008C3
:106DB0000000080000080000080000180000600043
:106DC000000004000807FFF807800807FC00007FA8
:106DD000C00003F80007C000780007800807FFF82C
:106DE00007FFF804000804000807FFF8070008037D
:106DF000C00000E000003800001E00000700000195
:106E0000C00400F007FFF8040000000000007F80CD
:106E100001FFE00380700600180400080400080663
:106E2000001803003001FFE0007F80000000040034
:106E30000807FFF807FFF80404080404000404002E
:106E4000040400040400060C0003F80001F0000034
:106E50000000000000007F8001FFE003807006005A
:106E6000880400880400C806003C03003E01FFE6D9
:106E7000007F8400000004000807FFF807FFF80403
:106E80000808040800040C00040F00040BC00610DE
:106E9000F003F03801E00800000800000001E0F80D
:106EA00003F030063010041808041808040C080415
:106EB0000C080206180207F00781E00000000180BC
:106EC0000006000004000004000004000807FFF8AA
:106ED00007FFF80400080400000400000600000199
:106EE000800004000007FFE007FFF0040018000026
:106EF0000800000800000800000800000804001056
:106F000007FFE004000004000006000007E000079F
:106F1000FE00041FE00001F80000380001E0043E1C
:106F20000007C00006000004000004000007E000A5
:106F300007FFC0041FF80007C007F80007FF800420
:106F40003FF80007C004F80007000004000000003C
:106F50000004000806001807C07805F1C8003E00CC
:106F6000001F800463E80780F8060018040008008A
:106F7000000004000006000007800007E008047C11
:106F800008001FF80007F800180804E008070000D0
:106F9000060000040000000000010008060038049C
:106FA00000F80403E8040F08047C0805F00807C093
:106FB0000807001804006000000000000000000046
:106FC0000000000000000000003FFFFE2000022043
:106FD0000002200002200002200002000000000049
:106FE0000000000008000007000000C0000038009A
:106FF0000006000001C000003000000E000001008B
:10700000000000000000000020000220000220001C
:10701000022000022000023FFFFE000000000000EE
:107020000000000000000000000000000000000858
:1070300000001000003000002000003000001000B0
:107040000008000000000000000000000100000136
:10705000000001000001000001000001000001002B
:10706000000100000100000100000100000100001B
:1070700000000000000000200000200000100000C0
:1070800010000000000000000000000000000000F0
:1070900000000000000000F00019F8001B1800229A
:1070A00008002608002408002410003FF8001FF8FC
:1070B00000000800001800000004000007FFF80F9F
:1070C000FFF0001818001008002008002008003009
:1070D00018001FF0000FC00000000000000007C0F3
:1070E000001FF000183000200800200800200800D1
:1070F0003C08001C100000600000000000000000C0
:10710000000007C0001FF000381800200800200809
:1071100000200804101007FFF80FFFF00000100017
:1071200000000000000000000007C0001FF0001277
:1071300030002218002208002208003208001E1029
:10714000000E2000000000000000200000200800C9
:10715000200801FFF803FFF8062008042008042097
:107160000807200003000000000000000000000EDF
:10717000000E6E001FF30031B10020B10020B100FD
:107180003191001F13002E1E00200E003000000061
:107190000004000807FFF80FFFF8001008002000A7
:1071A000002000002008003FF8001FF80000080041
:1071B000000000000000000000200800200800205F
:1071C00008063FF8063FF800000800000800000825
:1071D00000000000000000000000000000000300AC
:1071E0000003002001002001002003063FFE063FAF
:1071F000FC00000000000000000000000004000887
:1072000007FFF80FFFF8000188000300002FC000FF
:1072100038F80020380020080000080000000000B6
:107220000000000004000804000804000807FFF83C
:107230000FFFF80000080000080000080000000030
:107240000000002008003FF8003FF8001008002070
:1072500000003FF8003FF8001008002000003FF851
:10726000003FF8000008000000002008003FF80080
:107270003FF8001008001000002000002008003F28
:10728000F8001FF80000080000000000000007C020
:10729000000FF0001830003008002008002008001F
:1072A0003008001830000FF00007C0000000000098
:1072B00000002001003FFF003FFF001011002009E7
:1072C000002008002008003038001FF0000FC00028
:1072D00000000000000007C0001FF0003818002068
:1072E00008002008002009001011001FFF003FFFC8
:1072F0000000010000000020080020080020080015
:107300003FF8003FF800080800100800200800209F
:10731000000030000030000000000000000000000D
:10732000000C78001E180033080023080021080014
:1073300021880021980030F0003860000000000033
:107340000000200000200000200000FFF003FFF8F4
:107350000020080020080020080000300000000085
:107360000000000000002000003FF0007FF8000057
:1073700018000008000008002010003FF8007FF00F
:10738000000010000000000000002000003000009D
:107390003C00003F800023F00000780000700023D4
:1073A00080003C00003000002000002000003C0075
:1073B000003FE00023F80000E0002700003E00004E
:1073C0003FE00021F80001E0003E00002000000046
:1073D00000002008002008003838003E68002780A0
:1073E0000003C8002CF800383800201800200800DE
:1073F0000000000000002000003003003C01003FBE
:10740000830023EC000070002380003C000020007B
:10741000002000000000000000000000003808000C
:1074200020380020F80023E8002F88003E080038AC
:10743000080020180000700000000000000000009C
:107440000000000000000000000008000014001F01
:10745000F7FC3000062000020000000000000000E1
:10746000000000000000000000000000000000001C
:10747000FFFFFF000000000000000000000000000F
:1074800000000000000000002000023000061FF78E
:10749000FC001400000800000000000000000000D4
:1074A0000000000000000000001800006000004024
:1074B0000000400000200000100000080000040050
:1074C000000400000C00001000003031323334356D
:1074D0003637383941424344454640305800303110
:1074E000323334353637383961626364656640302B
:1074F0007800000014750008000000203C00000027
:107500006C010008507500083C0000206C2700004A
:107510008801000800A24A040000000000000000EA
:10752000010203040607080901000000FFFF000034
:107530000000000000000000000000000000010248
:1075400003040102030406070809020406080000F8
:0400000508000131BD
:00000001FF
